{"contracts/TrustlessMulticall.sol":{"TrustlessMulticall":{"abi":[{"inputs":[{"components":[{"internalType":"address","name":"target","type":"address"},{"internalType":"bytes","name":"callData","type":"bytes"}],"internalType":"struct TrustlessMulticallRead.ReadCall[]","name":"calls","type":"tuple[]"}],"name":"read","outputs":[{"internalType":"uint256","name":"blockNumber","type":"uint256"},{"components":[{"internalType":"bool","name":"success","type":"bool"},{"internalType":"bytes","name":"returnData","type":"bytes"}],"internalType":"struct TrustlessMulticallRead.ReadResult[]","name":"results","type":"tuple[]"}],"stateMutability":"nonpayable","type":"function"},{"inputs":[{"components":[{"internalType":"address","name":"target","type":"address"},{"internalType":"bytes","name":"callData","type":"bytes"},{"internalType":"uint256","name":"value","type":"uint256"}],"internalType":"struct TrustlessMulticallWrite.WriteCall[]","name":"calls","type":"tuple[]"},{"internalType":"bool","name":"revertOnCallFailure","type":"bool"}],"name":"write","outputs":[{"internalType":"bytes[]","name":"results","type":"bytes[]"}],"stateMutability":"payable","type":"function"}],"evm":{"bytecode":{"linkReferences":{},"object":"608060405234801561001057600080fd5b506001600081905550611032806100286000396000f3fe6080604052600436106100295760003560e01c8063762eaab31461002e578063913821c31461006c575b600080fd5b34801561003a57600080fd5b50610055600480360381019061005091906105ac565b61009c565b6040516100639291906107bc565b60405180910390f35b6100866004803603810190610081919061086e565b610240565b6040516100939190610990565b60405180910390f35b600060608383905067ffffffffffffffff8111156100bd576100bc6109b2565b5b6040519080825280602002602001820160405280156100f657816020015b6100e36104e0565b8152602001906001900390816100db5790505b50905060005b848490508110156102355784848281811061011a576101196109e1565b5b905060200281019061012c9190610a1f565b600001602081019061013e9190610aa5565b73ffffffffffffffffffffffffffffffffffffffff16858583818110610167576101666109e1565b5b90506020028101906101799190610a1f565b80602001906101889190610ad2565b604051610196929190610b74565b6000604051808303816000865af19150503d80600081146101d3576040519150601f19603f3d011682016040523d82523d6000602084013e6101d8565b606091505b508383815181106101ec576101eb6109e1565b5b602002602001015160000184848151811061020a576102096109e1565b5b602002602001015160200182905282151515158152505050808061022d90610bbc565b9150506100fc565b504391509250929050565b6060600260005403610287576040517f08c379a000000000000000000000000000000000000000000000000000000000815260040161027e90610c61565b60405180910390fd5b60026000819055506102976104fc565b8484905067ffffffffffffffff8111156102b4576102b36109b2565b5b6040519080825280602002602001820160405280156102e757816020015b60608152602001906001900390816102d25790505b50915060005b858590508110156104cf5785858281811061030b5761030a6109e1565b5b905060200281019061031d9190610c81565b61032690610e51565b915060008060008460400151116103ac57836000015173ffffffffffffffffffffffffffffffffffffffff1684602001516040516103649190610e95565b6000604051808303816000865af19150503d80600081146103a1576040519150601f19603f3d011682016040523d82523d6000602084013e6103a6565b606091505b50610422565b836000015173ffffffffffffffffffffffffffffffffffffffff16846040015185602001516040516103de9190610e95565b60006040518083038185875af1925050503d806000811461041b576040519150601f19603f3d011682016040523d82523d6000602084013e610420565b606091505b505b91509150858015610431575081155b1561049b5760448151101561044557600080fd5b6004810190508080602001905181019061045f9190610f4d565b6040517f08c379a00000000000000000000000000000000000000000000000000000000081526004016104929190610fda565b60405180910390fd5b808584815181106104af576104ae6109e1565b5b6020026020010181905250505080806104c790610bbc565b9150506102ed565b505060016000819055509392505050565b6040518060400160405280600015158152602001606081525090565b6040518060600160405280600073ffffffffffffffffffffffffffffffffffffffff16815260200160608152602001600081525090565b6000604051905090565b600080fd5b600080fd5b600080fd5b600080fd5b600080fd5b60008083601f84011261056c5761056b610547565b5b8235905067ffffffffffffffff8111156105895761058861054c565b5b6020830191508360208202830111156105a5576105a4610551565b5b9250929050565b600080602083850312156105c3576105c261053d565b5b600083013567ffffffffffffffff8111156105e1576105e0610542565b5b6105ed85828601610556565b92509250509250929050565b6000819050919050565b61060c816105f9565b82525050565b600081519050919050565b600082825260208201905092915050565b6000819050602082019050919050565b60008115159050919050565b6106538161063e565b82525050565b600081519050919050565b600082825260208201905092915050565b60005b83811015610693578082015181840152602081019050610678565b60008484015250505050565b6000601f19601f8301169050919050565b60006106bb82610659565b6106c58185610664565b93506106d5818560208601610675565b6106de8161069f565b840191505092915050565b6000604083016000830151610701600086018261064a565b506020830151848203602086015261071982826106b0565b9150508091505092915050565b600061073283836106e9565b905092915050565b6000602082019050919050565b600061075282610612565b61075c818561061d565b93508360208202850161076e8561062e565b8060005b858110156107aa578484038952815161078b8582610726565b94506107968361073a565b925060208a01995050600181019050610772565b50829750879550505050505092915050565b60006040820190506107d16000830185610603565b81810360208301526107e38184610747565b90509392505050565b60008083601f84011261080257610801610547565b5b8235905067ffffffffffffffff81111561081f5761081e61054c565b5b60208301915083602082028301111561083b5761083a610551565b5b9250929050565b61084b8161063e565b811461085657600080fd5b50565b60008135905061086881610842565b92915050565b6000806000604084860312156108875761088661053d565b5b600084013567ffffffffffffffff8111156108a5576108a4610542565b5b6108b1868287016107ec565b935093505060206108c486828701610859565b9150509250925092565b600081519050919050565b600082825260208201905092915050565b6000819050602082019050919050565b600061090683836106b0565b905092915050565b6000602082019050919050565b6000610926826108ce565b61093081856108d9565b935083602082028501610942856108ea565b8060005b8581101561097e578484038952815161095f85826108fa565b945061096a8361090e565b925060208a01995050600181019050610946565b50829750879550505050505092915050565b600060208201905081810360008301526109aa818461091b565b905092915050565b7f4e487b7100000000000000000000000000000000000000000000000000000000600052604160045260246000fd5b7f4e487b7100000000000000000000000000000000000000000000000000000000600052603260045260246000fd5b600080fd5b600080fd5b600080fd5b600082356001604003833603038112610a3b57610a3a610a10565b5b80830191505092915050565b600073ffffffffffffffffffffffffffffffffffffffff82169050919050565b6000610a7282610a47565b9050919050565b610a8281610a67565b8114610a8d57600080fd5b50565b600081359050610a9f81610a79565b92915050565b600060208284031215610abb57610aba61053d565b5b6000610ac984828501610a90565b91505092915050565b60008083356001602003843603038112610aef57610aee610a10565b5b80840192508235915067ffffffffffffffff821115610b1157610b10610a15565b5b602083019250600182023603831315610b2d57610b2c610a1a565b5b509250929050565b600081905092915050565b82818337600083830152505050565b6000610b5b8385610b35565b9350610b68838584610b40565b82840190509392505050565b6000610b81828486610b4f565b91508190509392505050565b7f4e487b7100000000000000000000000000000000000000000000000000000000600052601160045260246000fd5b6000610bc7826105f9565b91507fffffffffffffffffffffffffffffffffffffffffffffffffffffffffffffffff8203610bf957610bf8610b8d565b5b600182019050919050565b600082825260208201905092915050565b7f5265656e7472616e637947756172643a207265656e7472616e742063616c6c00600082015250565b6000610c4b601f83610c04565b9150610c5682610c15565b602082019050919050565b60006020820190508181036000830152610c7a81610c3e565b9050919050565b600082356001606003833603038112610c9d57610c9c610a10565b5b80830191505092915050565b600080fd5b610cb78261069f565b810181811067ffffffffffffffff82111715610cd657610cd56109b2565b5b80604052505050565b6000610ce9610533565b9050610cf58282610cae565b919050565b600080fd5b600080fd5b600067ffffffffffffffff821115610d1f57610d1e6109b2565b5b610d288261069f565b9050602081019050919050565b6000610d48610d4384610d04565b610cdf565b905082815260208101848484011115610d6457610d63610cff565b5b610d6f848285610b40565b509392505050565b600082601f830112610d8c57610d8b610547565b5b8135610d9c848260208601610d35565b91505092915050565b610dae816105f9565b8114610db957600080fd5b50565b600081359050610dcb81610da5565b92915050565b600060608284031215610de757610de6610ca9565b5b610df16060610cdf565b90506000610e0184828501610a90565b600083015250602082013567ffffffffffffffff811115610e2557610e24610cfa565b5b610e3184828501610d77565b6020830152506040610e4584828501610dbc565b60408301525092915050565b6000610e5d3683610dd1565b9050919050565b6000610e6f82610659565b610e798185610b35565b9350610e89818560208601610675565b80840191505092915050565b6000610ea18284610e64565b915081905092915050565b600067ffffffffffffffff821115610ec757610ec66109b2565b5b610ed08261069f565b9050602081019050919050565b6000610ef0610eeb84610eac565b610cdf565b905082815260208101848484011115610f0c57610f0b610cff565b5b610f17848285610675565b509392505050565b600082601f830112610f3457610f33610547565b5b8151610f44848260208601610edd565b91505092915050565b600060208284031215610f6357610f6261053d565b5b600082015167ffffffffffffffff811115610f8157610f80610542565b5b610f8d84828501610f1f565b91505092915050565b600081519050919050565b6000610fac82610f96565b610fb68185610c04565b9350610fc6818560208601610675565b610fcf8161069f565b840191505092915050565b60006020820190508181036000830152610ff48184610fa1565b90509291505056fea26469706673582212206654d5f4e0c144091008a158ab7f496642fb97a19b4b5422e37fde14997e338c64736f6c63430008110033","opcodes":"PUSH1 0x80 PUSH1 0x40 MSTORE CALLVALUE DUP1 ISZERO PUSH2 0x10 JUMPI PUSH1 0x0 DUP1 REVERT JUMPDEST POP PUSH1 0x1 PUSH1 0x0 DUP2 SWAP1 SSTORE POP PUSH2 0x1032 DUP1 PUSH2 0x28 PUSH1 0x0 CODECOPY PUSH1 0x0 RETURN INVALID PUSH1 0x80 PUSH1 0x40 MSTORE PUSH1 0x4 CALLDATASIZE LT PUSH2 0x29 JUMPI PUSH1 0x0 CALLDATALOAD PUSH1 0xE0 SHR DUP1 PUSH4 0x762EAAB3 EQ PUSH2 0x2E JUMPI DUP1 PUSH4 0x913821C3 EQ PUSH2 0x6C JUMPI JUMPDEST PUSH1 0x0 DUP1 REVERT JUMPDEST CALLVALUE DUP1 ISZERO PUSH2 0x3A JUMPI PUSH1 0x0 DUP1 REVERT JUMPDEST POP PUSH2 0x55 PUSH1 0x4 DUP1 CALLDATASIZE SUB DUP2 ADD SWAP1 PUSH2 0x50 SWAP2 SWAP1 PUSH2 0x5AC JUMP JUMPDEST PUSH2 0x9C JUMP JUMPDEST PUSH1 0x40 MLOAD PUSH2 0x63 SWAP3 SWAP2 SWAP1 PUSH2 0x7BC JUMP JUMPDEST PUSH1 0x40 MLOAD DUP1 SWAP2 SUB SWAP1 RETURN JUMPDEST PUSH2 0x86 PUSH1 0x4 DUP1 CALLDATASIZE SUB DUP2 ADD SWAP1 PUSH2 0x81 SWAP2 SWAP1 PUSH2 0x86E JUMP JUMPDEST PUSH2 0x240 JUMP JUMPDEST PUSH1 0x40 MLOAD PUSH2 0x93 SWAP2 SWAP1 PUSH2 0x990 JUMP JUMPDEST PUSH1 0x40 MLOAD DUP1 SWAP2 SUB SWAP1 RETURN JUMPDEST PUSH1 0x0 PUSH1 0x60 DUP4 DUP4 SWAP1 POP PUSH8 0xFFFFFFFFFFFFFFFF DUP2 GT ISZERO PUSH2 0xBD JUMPI PUSH2 0xBC PUSH2 0x9B2 JUMP JUMPDEST JUMPDEST PUSH1 0x40 MLOAD SWAP1 DUP1 DUP3 MSTORE DUP1 PUSH1 0x20 MUL PUSH1 0x20 ADD DUP3 ADD PUSH1 0x40 MSTORE DUP1 ISZERO PUSH2 0xF6 JUMPI DUP2 PUSH1 0x20 ADD JUMPDEST PUSH2 0xE3 PUSH2 0x4E0 JUMP JUMPDEST DUP2 MSTORE PUSH1 0x20 ADD SWAP1 PUSH1 0x1 SWAP1 SUB SWAP1 DUP2 PUSH2 0xDB JUMPI SWAP1 POP JUMPDEST POP SWAP1 POP PUSH1 0x0 JUMPDEST DUP5 DUP5 SWAP1 POP DUP2 LT ISZERO PUSH2 0x235 JUMPI DUP5 DUP5 DUP3 DUP2 DUP2 LT PUSH2 0x11A JUMPI PUSH2 0x119 PUSH2 0x9E1 JUMP JUMPDEST JUMPDEST SWAP1 POP PUSH1 0x20 MUL DUP2 ADD SWAP1 PUSH2 0x12C SWAP2 SWAP1 PUSH2 0xA1F JUMP JUMPDEST PUSH1 0x0 ADD PUSH1 0x20 DUP2 ADD SWAP1 PUSH2 0x13E SWAP2 SWAP1 PUSH2 0xAA5 JUMP JUMPDEST PUSH20 0xFFFFFFFFFFFFFFFFFFFFFFFFFFFFFFFFFFFFFFFF AND DUP6 DUP6 DUP4 DUP2 DUP2 LT PUSH2 0x167 JUMPI PUSH2 0x166 PUSH2 0x9E1 JUMP JUMPDEST JUMPDEST SWAP1 POP PUSH1 0x20 MUL DUP2 ADD SWAP1 PUSH2 0x179 SWAP2 SWAP1 PUSH2 0xA1F JUMP JUMPDEST DUP1 PUSH1 0x20 ADD SWAP1 PUSH2 0x188 SWAP2 SWAP1 PUSH2 0xAD2 JUMP JUMPDEST PUSH1 0x40 MLOAD PUSH2 0x196 SWAP3 SWAP2 SWAP1 PUSH2 0xB74 JUMP JUMPDEST PUSH1 0x0 PUSH1 0x40 MLOAD DUP1 DUP4 SUB DUP2 PUSH1 0x0 DUP7 GAS CALL SWAP2 POP POP RETURNDATASIZE DUP1 PUSH1 0x0 DUP2 EQ PUSH2 0x1D3 JUMPI PUSH1 0x40 MLOAD SWAP2 POP PUSH1 0x1F NOT PUSH1 0x3F RETURNDATASIZE ADD AND DUP3 ADD PUSH1 0x40 MSTORE RETURNDATASIZE DUP3 MSTORE RETURNDATASIZE PUSH1 0x0 PUSH1 0x20 DUP5 ADD RETURNDATACOPY PUSH2 0x1D8 JUMP JUMPDEST PUSH1 0x60 SWAP2 POP JUMPDEST POP DUP4 DUP4 DUP2 MLOAD DUP2 LT PUSH2 0x1EC JUMPI PUSH2 0x1EB PUSH2 0x9E1 JUMP JUMPDEST JUMPDEST PUSH1 0x20 MUL PUSH1 0x20 ADD ADD MLOAD PUSH1 0x0 ADD DUP5 DUP5 DUP2 MLOAD DUP2 LT PUSH2 0x20A JUMPI PUSH2 0x209 PUSH2 0x9E1 JUMP JUMPDEST JUMPDEST PUSH1 0x20 MUL PUSH1 0x20 ADD ADD MLOAD PUSH1 0x20 ADD DUP3 SWAP1 MSTORE DUP3 ISZERO ISZERO ISZERO ISZERO DUP2 MSTORE POP POP POP DUP1 DUP1 PUSH2 0x22D SWAP1 PUSH2 0xBBC JUMP JUMPDEST SWAP2 POP POP PUSH2 0xFC JUMP JUMPDEST POP NUMBER SWAP2 POP SWAP3 POP SWAP3 SWAP1 POP JUMP JUMPDEST PUSH1 0x60 PUSH1 0x2 PUSH1 0x0 SLOAD SUB PUSH2 0x287 JUMPI PUSH1 0x40 MLOAD PUSH32 0x8C379A000000000000000000000000000000000000000000000000000000000 DUP2 MSTORE PUSH1 0x4 ADD PUSH2 0x27E SWAP1 PUSH2 0xC61 JUMP JUMPDEST PUSH1 0x40 MLOAD DUP1 SWAP2 SUB SWAP1 REVERT JUMPDEST PUSH1 0x2 PUSH1 0x0 DUP2 SWAP1 SSTORE POP PUSH2 0x297 PUSH2 0x4FC JUMP JUMPDEST DUP5 DUP5 SWAP1 POP PUSH8 0xFFFFFFFFFFFFFFFF DUP2 GT ISZERO PUSH2 0x2B4 JUMPI PUSH2 0x2B3 PUSH2 0x9B2 JUMP JUMPDEST JUMPDEST PUSH1 0x40 MLOAD SWAP1 DUP1 DUP3 MSTORE DUP1 PUSH1 0x20 MUL PUSH1 0x20 ADD DUP3 ADD PUSH1 0x40 MSTORE DUP1 ISZERO PUSH2 0x2E7 JUMPI DUP2 PUSH1 0x20 ADD JUMPDEST PUSH1 0x60 DUP2 MSTORE PUSH1 0x20 ADD SWAP1 PUSH1 0x1 SWAP1 SUB SWAP1 DUP2 PUSH2 0x2D2 JUMPI SWAP1 POP JUMPDEST POP SWAP2 POP PUSH1 0x0 JUMPDEST DUP6 DUP6 SWAP1 POP DUP2 LT ISZERO PUSH2 0x4CF JUMPI DUP6 DUP6 DUP3 DUP2 DUP2 LT PUSH2 0x30B JUMPI PUSH2 0x30A PUSH2 0x9E1 JUMP JUMPDEST JUMPDEST SWAP1 POP PUSH1 0x20 MUL DUP2 ADD SWAP1 PUSH2 0x31D SWAP2 SWAP1 PUSH2 0xC81 JUMP JUMPDEST PUSH2 0x326 SWAP1 PUSH2 0xE51 JUMP JUMPDEST SWAP2 POP PUSH1 0x0 DUP1 PUSH1 0x0 DUP5 PUSH1 0x40 ADD MLOAD GT PUSH2 0x3AC JUMPI DUP4 PUSH1 0x0 ADD MLOAD PUSH20 0xFFFFFFFFFFFFFFFFFFFFFFFFFFFFFFFFFFFFFFFF AND DUP5 PUSH1 0x20 ADD MLOAD PUSH1 0x40 MLOAD PUSH2 0x364 SWAP2 SWAP1 PUSH2 0xE95 JUMP JUMPDEST PUSH1 0x0 PUSH1 0x40 MLOAD DUP1 DUP4 SUB DUP2 PUSH1 0x0 DUP7 GAS CALL SWAP2 POP POP RETURNDATASIZE DUP1 PUSH1 0x0 DUP2 EQ PUSH2 0x3A1 JUMPI PUSH1 0x40 MLOAD SWAP2 POP PUSH1 0x1F NOT PUSH1 0x3F RETURNDATASIZE ADD AND DUP3 ADD PUSH1 0x40 MSTORE RETURNDATASIZE DUP3 MSTORE RETURNDATASIZE PUSH1 0x0 PUSH1 0x20 DUP5 ADD RETURNDATACOPY PUSH2 0x3A6 JUMP JUMPDEST PUSH1 0x60 SWAP2 POP JUMPDEST POP PUSH2 0x422 JUMP JUMPDEST DUP4 PUSH1 0x0 ADD MLOAD PUSH20 0xFFFFFFFFFFFFFFFFFFFFFFFFFFFFFFFFFFFFFFFF AND DUP5 PUSH1 0x40 ADD MLOAD DUP6 PUSH1 0x20 ADD MLOAD PUSH1 0x40 MLOAD PUSH2 0x3DE SWAP2 SWAP1 PUSH2 0xE95 JUMP JUMPDEST PUSH1 0x0 PUSH1 0x40 MLOAD DUP1 DUP4 SUB DUP2 DUP6 DUP8 GAS CALL SWAP3 POP POP POP RETURNDATASIZE DUP1 PUSH1 0x0 DUP2 EQ PUSH2 0x41B JUMPI PUSH1 0x40 MLOAD SWAP2 POP PUSH1 0x1F NOT PUSH1 0x3F RETURNDATASIZE ADD AND DUP3 ADD PUSH1 0x40 MSTORE RETURNDATASIZE DUP3 MSTORE RETURNDATASIZE PUSH1 0x0 PUSH1 0x20 DUP5 ADD RETURNDATACOPY PUSH2 0x420 JUMP JUMPDEST PUSH1 0x60 SWAP2 POP JUMPDEST POP JUMPDEST SWAP2 POP SWAP2 POP DUP6 DUP1 ISZERO PUSH2 0x431 JUMPI POP DUP2 ISZERO JUMPDEST ISZERO PUSH2 0x49B JUMPI PUSH1 0x44 DUP2 MLOAD LT ISZERO PUSH2 0x445 JUMPI PUSH1 0x0 DUP1 REVERT JUMPDEST PUSH1 0x4 DUP2 ADD SWAP1 POP DUP1 DUP1 PUSH1 0x20 ADD SWAP1 MLOAD DUP2 ADD SWAP1 PUSH2 0x45F SWAP2 SWAP1 PUSH2 0xF4D JUMP JUMPDEST PUSH1 0x40 MLOAD PUSH32 0x8C379A000000000000000000000000000000000000000000000000000000000 DUP2 MSTORE PUSH1 0x4 ADD PUSH2 0x492 SWAP2 SWAP1 PUSH2 0xFDA JUMP JUMPDEST PUSH1 0x40 MLOAD DUP1 SWAP2 SUB SWAP1 REVERT JUMPDEST DUP1 DUP6 DUP5 DUP2 MLOAD DUP2 LT PUSH2 0x4AF JUMPI PUSH2 0x4AE PUSH2 0x9E1 JUMP JUMPDEST JUMPDEST PUSH1 0x20 MUL PUSH1 0x20 ADD ADD DUP2 SWAP1 MSTORE POP POP POP DUP1 DUP1 PUSH2 0x4C7 SWAP1 PUSH2 0xBBC JUMP JUMPDEST SWAP2 POP POP PUSH2 0x2ED JUMP JUMPDEST POP POP PUSH1 0x1 PUSH1 0x0 DUP2 SWAP1 SSTORE POP SWAP4 SWAP3 POP POP POP JUMP JUMPDEST PUSH1 0x40 MLOAD DUP1 PUSH1 0x40 ADD PUSH1 0x40 MSTORE DUP1 PUSH1 0x0 ISZERO ISZERO DUP2 MSTORE PUSH1 0x20 ADD PUSH1 0x60 DUP2 MSTORE POP SWAP1 JUMP JUMPDEST PUSH1 0x40 MLOAD DUP1 PUSH1 0x60 ADD PUSH1 0x40 MSTORE DUP1 PUSH1 0x0 PUSH20 0xFFFFFFFFFFFFFFFFFFFFFFFFFFFFFFFFFFFFFFFF AND DUP2 MSTORE PUSH1 0x20 ADD PUSH1 0x60 DUP2 MSTORE PUSH1 0x20 ADD PUSH1 0x0 DUP2 MSTORE POP SWAP1 JUMP JUMPDEST PUSH1 0x0 PUSH1 0x40 MLOAD SWAP1 POP SWAP1 JUMP JUMPDEST PUSH1 0x0 DUP1 REVERT JUMPDEST PUSH1 0x0 DUP1 REVERT JUMPDEST PUSH1 0x0 DUP1 REVERT JUMPDEST PUSH1 0x0 DUP1 REVERT JUMPDEST PUSH1 0x0 DUP1 REVERT JUMPDEST PUSH1 0x0 DUP1 DUP4 PUSH1 0x1F DUP5 ADD SLT PUSH2 0x56C JUMPI PUSH2 0x56B PUSH2 0x547 JUMP JUMPDEST JUMPDEST DUP3 CALLDATALOAD SWAP1 POP PUSH8 0xFFFFFFFFFFFFFFFF DUP2 GT ISZERO PUSH2 0x589 JUMPI PUSH2 0x588 PUSH2 0x54C JUMP JUMPDEST JUMPDEST PUSH1 0x20 DUP4 ADD SWAP2 POP DUP4 PUSH1 0x20 DUP3 MUL DUP4 ADD GT ISZERO PUSH2 0x5A5 JUMPI PUSH2 0x5A4 PUSH2 0x551 JUMP JUMPDEST JUMPDEST SWAP3 POP SWAP3 SWAP1 POP JUMP JUMPDEST PUSH1 0x0 DUP1 PUSH1 0x20 DUP4 DUP6 SUB SLT ISZERO PUSH2 0x5C3 JUMPI PUSH2 0x5C2 PUSH2 0x53D JUMP JUMPDEST JUMPDEST PUSH1 0x0 DUP4 ADD CALLDATALOAD PUSH8 0xFFFFFFFFFFFFFFFF DUP2 GT ISZERO PUSH2 0x5E1 JUMPI PUSH2 0x5E0 PUSH2 0x542 JUMP JUMPDEST JUMPDEST PUSH2 0x5ED DUP6 DUP3 DUP7 ADD PUSH2 0x556 JUMP JUMPDEST SWAP3 POP SWAP3 POP POP SWAP3 POP SWAP3 SWAP1 POP JUMP JUMPDEST PUSH1 0x0 DUP2 SWAP1 POP SWAP2 SWAP1 POP JUMP JUMPDEST PUSH2 0x60C DUP2 PUSH2 0x5F9 JUMP JUMPDEST DUP3 MSTORE POP POP JUMP JUMPDEST PUSH1 0x0 DUP2 MLOAD SWAP1 POP SWAP2 SWAP1 POP JUMP JUMPDEST PUSH1 0x0 DUP3 DUP3 MSTORE PUSH1 0x20 DUP3 ADD SWAP1 POP SWAP3 SWAP2 POP POP JUMP JUMPDEST PUSH1 0x0 DUP2 SWAP1 POP PUSH1 0x20 DUP3 ADD SWAP1 POP SWAP2 SWAP1 POP JUMP JUMPDEST PUSH1 0x0 DUP2 ISZERO ISZERO SWAP1 POP SWAP2 SWAP1 POP JUMP JUMPDEST PUSH2 0x653 DUP2 PUSH2 0x63E JUMP JUMPDEST DUP3 MSTORE POP POP JUMP JUMPDEST PUSH1 0x0 DUP2 MLOAD SWAP1 POP SWAP2 SWAP1 POP JUMP JUMPDEST PUSH1 0x0 DUP3 DUP3 MSTORE PUSH1 0x20 DUP3 ADD SWAP1 POP SWAP3 SWAP2 POP POP JUMP JUMPDEST PUSH1 0x0 JUMPDEST DUP4 DUP2 LT ISZERO PUSH2 0x693 JUMPI DUP1 DUP3 ADD MLOAD DUP2 DUP5 ADD MSTORE PUSH1 0x20 DUP2 ADD SWAP1 POP PUSH2 0x678 JUMP JUMPDEST PUSH1 0x0 DUP5 DUP5 ADD MSTORE POP POP POP POP JUMP JUMPDEST PUSH1 0x0 PUSH1 0x1F NOT PUSH1 0x1F DUP4 ADD AND SWAP1 POP SWAP2 SWAP1 POP JUMP JUMPDEST PUSH1 0x0 PUSH2 0x6BB DUP3 PUSH2 0x659 JUMP JUMPDEST PUSH2 0x6C5 DUP2 DUP6 PUSH2 0x664 JUMP JUMPDEST SWAP4 POP PUSH2 0x6D5 DUP2 DUP6 PUSH1 0x20 DUP7 ADD PUSH2 0x675 JUMP JUMPDEST PUSH2 0x6DE DUP2 PUSH2 0x69F JUMP JUMPDEST DUP5 ADD SWAP2 POP POP SWAP3 SWAP2 POP POP JUMP JUMPDEST PUSH1 0x0 PUSH1 0x40 DUP4 ADD PUSH1 0x0 DUP4 ADD MLOAD PUSH2 0x701 PUSH1 0x0 DUP7 ADD DUP3 PUSH2 0x64A JUMP JUMPDEST POP PUSH1 0x20 DUP4 ADD MLOAD DUP5 DUP3 SUB PUSH1 0x20 DUP7 ADD MSTORE PUSH2 0x719 DUP3 DUP3 PUSH2 0x6B0 JUMP JUMPDEST SWAP2 POP POP DUP1 SWAP2 POP POP SWAP3 SWAP2 POP POP JUMP JUMPDEST PUSH1 0x0 PUSH2 0x732 DUP4 DUP4 PUSH2 0x6E9 JUMP JUMPDEST SWAP1 POP SWAP3 SWAP2 POP POP JUMP JUMPDEST PUSH1 0x0 PUSH1 0x20 DUP3 ADD SWAP1 POP SWAP2 SWAP1 POP JUMP JUMPDEST PUSH1 0x0 PUSH2 0x752 DUP3 PUSH2 0x612 JUMP JUMPDEST PUSH2 0x75C DUP2 DUP6 PUSH2 0x61D JUMP JUMPDEST SWAP4 POP DUP4 PUSH1 0x20 DUP3 MUL DUP6 ADD PUSH2 0x76E DUP6 PUSH2 0x62E JUMP JUMPDEST DUP1 PUSH1 0x0 JUMPDEST DUP6 DUP2 LT ISZERO PUSH2 0x7AA JUMPI DUP5 DUP5 SUB DUP10 MSTORE DUP2 MLOAD PUSH2 0x78B DUP6 DUP3 PUSH2 0x726 JUMP JUMPDEST SWAP5 POP PUSH2 0x796 DUP4 PUSH2 0x73A JUMP JUMPDEST SWAP3 POP PUSH1 0x20 DUP11 ADD SWAP10 POP POP PUSH1 0x1 DUP2 ADD SWAP1 POP PUSH2 0x772 JUMP JUMPDEST POP DUP3 SWAP8 POP DUP8 SWAP6 POP POP POP POP POP POP SWAP3 SWAP2 POP POP JUMP JUMPDEST PUSH1 0x0 PUSH1 0x40 DUP3 ADD SWAP1 POP PUSH2 0x7D1 PUSH1 0x0 DUP4 ADD DUP6 PUSH2 0x603 JUMP JUMPDEST DUP2 DUP2 SUB PUSH1 0x20 DUP4 ADD MSTORE PUSH2 0x7E3 DUP2 DUP5 PUSH2 0x747 JUMP JUMPDEST SWAP1 POP SWAP4 SWAP3 POP POP POP JUMP JUMPDEST PUSH1 0x0 DUP1 DUP4 PUSH1 0x1F DUP5 ADD SLT PUSH2 0x802 JUMPI PUSH2 0x801 PUSH2 0x547 JUMP JUMPDEST JUMPDEST DUP3 CALLDATALOAD SWAP1 POP PUSH8 0xFFFFFFFFFFFFFFFF DUP2 GT ISZERO PUSH2 0x81F JUMPI PUSH2 0x81E PUSH2 0x54C JUMP JUMPDEST JUMPDEST PUSH1 0x20 DUP4 ADD SWAP2 POP DUP4 PUSH1 0x20 DUP3 MUL DUP4 ADD GT ISZERO PUSH2 0x83B JUMPI PUSH2 0x83A PUSH2 0x551 JUMP JUMPDEST JUMPDEST SWAP3 POP SWAP3 SWAP1 POP JUMP JUMPDEST PUSH2 0x84B DUP2 PUSH2 0x63E JUMP JUMPDEST DUP2 EQ PUSH2 0x856 JUMPI PUSH1 0x0 DUP1 REVERT JUMPDEST POP JUMP JUMPDEST PUSH1 0x0 DUP2 CALLDATALOAD SWAP1 POP PUSH2 0x868 DUP2 PUSH2 0x842 JUMP JUMPDEST SWAP3 SWAP2 POP POP JUMP JUMPDEST PUSH1 0x0 DUP1 PUSH1 0x0 PUSH1 0x40 DUP5 DUP7 SUB SLT ISZERO PUSH2 0x887 JUMPI PUSH2 0x886 PUSH2 0x53D JUMP JUMPDEST JUMPDEST PUSH1 0x0 DUP5 ADD CALLDATALOAD PUSH8 0xFFFFFFFFFFFFFFFF DUP2 GT ISZERO PUSH2 0x8A5 JUMPI PUSH2 0x8A4 PUSH2 0x542 JUMP JUMPDEST JUMPDEST PUSH2 0x8B1 DUP7 DUP3 DUP8 ADD PUSH2 0x7EC JUMP JUMPDEST SWAP4 POP SWAP4 POP POP PUSH1 0x20 PUSH2 0x8C4 DUP7 DUP3 DUP8 ADD PUSH2 0x859 JUMP JUMPDEST SWAP2 POP POP SWAP3 POP SWAP3 POP SWAP3 JUMP JUMPDEST PUSH1 0x0 DUP2 MLOAD SWAP1 POP SWAP2 SWAP1 POP JUMP JUMPDEST PUSH1 0x0 DUP3 DUP3 MSTORE PUSH1 0x20 DUP3 ADD SWAP1 POP SWAP3 SWAP2 POP POP JUMP JUMPDEST PUSH1 0x0 DUP2 SWAP1 POP PUSH1 0x20 DUP3 ADD SWAP1 POP SWAP2 SWAP1 POP JUMP JUMPDEST PUSH1 0x0 PUSH2 0x906 DUP4 DUP4 PUSH2 0x6B0 JUMP JUMPDEST SWAP1 POP SWAP3 SWAP2 POP POP JUMP JUMPDEST PUSH1 0x0 PUSH1 0x20 DUP3 ADD SWAP1 POP SWAP2 SWAP1 POP JUMP JUMPDEST PUSH1 0x0 PUSH2 0x926 DUP3 PUSH2 0x8CE JUMP JUMPDEST PUSH2 0x930 DUP2 DUP6 PUSH2 0x8D9 JUMP JUMPDEST SWAP4 POP DUP4 PUSH1 0x20 DUP3 MUL DUP6 ADD PUSH2 0x942 DUP6 PUSH2 0x8EA JUMP JUMPDEST DUP1 PUSH1 0x0 JUMPDEST DUP6 DUP2 LT ISZERO PUSH2 0x97E JUMPI DUP5 DUP5 SUB DUP10 MSTORE DUP2 MLOAD PUSH2 0x95F DUP6 DUP3 PUSH2 0x8FA JUMP JUMPDEST SWAP5 POP PUSH2 0x96A DUP4 PUSH2 0x90E JUMP JUMPDEST SWAP3 POP PUSH1 0x20 DUP11 ADD SWAP10 POP POP PUSH1 0x1 DUP2 ADD SWAP1 POP PUSH2 0x946 JUMP JUMPDEST POP DUP3 SWAP8 POP DUP8 SWAP6 POP POP POP POP POP POP SWAP3 SWAP2 POP POP JUMP JUMPDEST PUSH1 0x0 PUSH1 0x20 DUP3 ADD SWAP1 POP DUP2 DUP2 SUB PUSH1 0x0 DUP4 ADD MSTORE PUSH2 0x9AA DUP2 DUP5 PUSH2 0x91B JUMP JUMPDEST SWAP1 POP SWAP3 SWAP2 POP POP JUMP JUMPDEST PUSH32 0x4E487B7100000000000000000000000000000000000000000000000000000000 PUSH1 0x0 MSTORE PUSH1 0x41 PUSH1 0x4 MSTORE PUSH1 0x24 PUSH1 0x0 REVERT JUMPDEST PUSH32 0x4E487B7100000000000000000000000000000000000000000000000000000000 PUSH1 0x0 MSTORE PUSH1 0x32 PUSH1 0x4 MSTORE PUSH1 0x24 PUSH1 0x0 REVERT JUMPDEST PUSH1 0x0 DUP1 REVERT JUMPDEST PUSH1 0x0 DUP1 REVERT JUMPDEST PUSH1 0x0 DUP1 REVERT JUMPDEST PUSH1 0x0 DUP3 CALLDATALOAD PUSH1 0x1 PUSH1 0x40 SUB DUP4 CALLDATASIZE SUB SUB DUP2 SLT PUSH2 0xA3B JUMPI PUSH2 0xA3A PUSH2 0xA10 JUMP JUMPDEST JUMPDEST DUP1 DUP4 ADD SWAP2 POP POP SWAP3 SWAP2 POP POP JUMP JUMPDEST PUSH1 0x0 PUSH20 0xFFFFFFFFFFFFFFFFFFFFFFFFFFFFFFFFFFFFFFFF DUP3 AND SWAP1 POP SWAP2 SWAP1 POP JUMP JUMPDEST PUSH1 0x0 PUSH2 0xA72 DUP3 PUSH2 0xA47 JUMP JUMPDEST SWAP1 POP SWAP2 SWAP1 POP JUMP JUMPDEST PUSH2 0xA82 DUP2 PUSH2 0xA67 JUMP JUMPDEST DUP2 EQ PUSH2 0xA8D JUMPI PUSH1 0x0 DUP1 REVERT JUMPDEST POP JUMP JUMPDEST PUSH1 0x0 DUP2 CALLDATALOAD SWAP1 POP PUSH2 0xA9F DUP2 PUSH2 0xA79 JUMP JUMPDEST SWAP3 SWAP2 POP POP JUMP JUMPDEST PUSH1 0x0 PUSH1 0x20 DUP3 DUP5 SUB SLT ISZERO PUSH2 0xABB JUMPI PUSH2 0xABA PUSH2 0x53D JUMP JUMPDEST JUMPDEST PUSH1 0x0 PUSH2 0xAC9 DUP5 DUP3 DUP6 ADD PUSH2 0xA90 JUMP JUMPDEST SWAP2 POP POP SWAP3 SWAP2 POP POP JUMP JUMPDEST PUSH1 0x0 DUP1 DUP4 CALLDATALOAD PUSH1 0x1 PUSH1 0x20 SUB DUP5 CALLDATASIZE SUB SUB DUP2 SLT PUSH2 0xAEF JUMPI PUSH2 0xAEE PUSH2 0xA10 JUMP JUMPDEST JUMPDEST DUP1 DUP5 ADD SWAP3 POP DUP3 CALLDATALOAD SWAP2 POP PUSH8 0xFFFFFFFFFFFFFFFF DUP3 GT ISZERO PUSH2 0xB11 JUMPI PUSH2 0xB10 PUSH2 0xA15 JUMP JUMPDEST JUMPDEST PUSH1 0x20 DUP4 ADD SWAP3 POP PUSH1 0x1 DUP3 MUL CALLDATASIZE SUB DUP4 SGT ISZERO PUSH2 0xB2D JUMPI PUSH2 0xB2C PUSH2 0xA1A JUMP JUMPDEST JUMPDEST POP SWAP3 POP SWAP3 SWAP1 POP JUMP JUMPDEST PUSH1 0x0 DUP2 SWAP1 POP SWAP3 SWAP2 POP POP JUMP JUMPDEST DUP3 DUP2 DUP4 CALLDATACOPY PUSH1 0x0 DUP4 DUP4 ADD MSTORE POP POP POP JUMP JUMPDEST PUSH1 0x0 PUSH2 0xB5B DUP4 DUP6 PUSH2 0xB35 JUMP JUMPDEST SWAP4 POP PUSH2 0xB68 DUP4 DUP6 DUP5 PUSH2 0xB40 JUMP JUMPDEST DUP3 DUP5 ADD SWAP1 POP SWAP4 SWAP3 POP POP POP JUMP JUMPDEST PUSH1 0x0 PUSH2 0xB81 DUP3 DUP5 DUP7 PUSH2 0xB4F JUMP JUMPDEST SWAP2 POP DUP2 SWAP1 POP SWAP4 SWAP3 POP POP POP JUMP JUMPDEST PUSH32 0x4E487B7100000000000000000000000000000000000000000000000000000000 PUSH1 0x0 MSTORE PUSH1 0x11 PUSH1 0x4 MSTORE PUSH1 0x24 PUSH1 0x0 REVERT JUMPDEST PUSH1 0x0 PUSH2 0xBC7 DUP3 PUSH2 0x5F9 JUMP JUMPDEST SWAP2 POP PUSH32 0xFFFFFFFFFFFFFFFFFFFFFFFFFFFFFFFFFFFFFFFFFFFFFFFFFFFFFFFFFFFFFFFF DUP3 SUB PUSH2 0xBF9 JUMPI PUSH2 0xBF8 PUSH2 0xB8D JUMP JUMPDEST JUMPDEST PUSH1 0x1 DUP3 ADD SWAP1 POP SWAP2 SWAP1 POP JUMP JUMPDEST PUSH1 0x0 DUP3 DUP3 MSTORE PUSH1 0x20 DUP3 ADD SWAP1 POP SWAP3 SWAP2 POP POP JUMP JUMPDEST PUSH32 0x5265656E7472616E637947756172643A207265656E7472616E742063616C6C00 PUSH1 0x0 DUP3 ADD MSTORE POP JUMP JUMPDEST PUSH1 0x0 PUSH2 0xC4B PUSH1 0x1F DUP4 PUSH2 0xC04 JUMP JUMPDEST SWAP2 POP PUSH2 0xC56 DUP3 PUSH2 0xC15 JUMP JUMPDEST PUSH1 0x20 DUP3 ADD SWAP1 POP SWAP2 SWAP1 POP JUMP JUMPDEST PUSH1 0x0 PUSH1 0x20 DUP3 ADD SWAP1 POP DUP2 DUP2 SUB PUSH1 0x0 DUP4 ADD MSTORE PUSH2 0xC7A DUP2 PUSH2 0xC3E JUMP JUMPDEST SWAP1 POP SWAP2 SWAP1 POP JUMP JUMPDEST PUSH1 0x0 DUP3 CALLDATALOAD PUSH1 0x1 PUSH1 0x60 SUB DUP4 CALLDATASIZE SUB SUB DUP2 SLT PUSH2 0xC9D JUMPI PUSH2 0xC9C PUSH2 0xA10 JUMP JUMPDEST JUMPDEST DUP1 DUP4 ADD SWAP2 POP POP SWAP3 SWAP2 POP POP JUMP JUMPDEST PUSH1 0x0 DUP1 REVERT JUMPDEST PUSH2 0xCB7 DUP3 PUSH2 0x69F JUMP JUMPDEST DUP2 ADD DUP2 DUP2 LT PUSH8 0xFFFFFFFFFFFFFFFF DUP3 GT OR ISZERO PUSH2 0xCD6 JUMPI PUSH2 0xCD5 PUSH2 0x9B2 JUMP JUMPDEST JUMPDEST DUP1 PUSH1 0x40 MSTORE POP POP POP JUMP JUMPDEST PUSH1 0x0 PUSH2 0xCE9 PUSH2 0x533 JUMP JUMPDEST SWAP1 POP PUSH2 0xCF5 DUP3 DUP3 PUSH2 0xCAE JUMP JUMPDEST SWAP2 SWAP1 POP JUMP JUMPDEST PUSH1 0x0 DUP1 REVERT JUMPDEST PUSH1 0x0 DUP1 REVERT JUMPDEST PUSH1 0x0 PUSH8 0xFFFFFFFFFFFFFFFF DUP3 GT ISZERO PUSH2 0xD1F JUMPI PUSH2 0xD1E PUSH2 0x9B2 JUMP JUMPDEST JUMPDEST PUSH2 0xD28 DUP3 PUSH2 0x69F JUMP JUMPDEST SWAP1 POP PUSH1 0x20 DUP2 ADD SWAP1 POP SWAP2 SWAP1 POP JUMP JUMPDEST PUSH1 0x0 PUSH2 0xD48 PUSH2 0xD43 DUP5 PUSH2 0xD04 JUMP JUMPDEST PUSH2 0xCDF JUMP JUMPDEST SWAP1 POP DUP3 DUP2 MSTORE PUSH1 0x20 DUP2 ADD DUP5 DUP5 DUP5 ADD GT ISZERO PUSH2 0xD64 JUMPI PUSH2 0xD63 PUSH2 0xCFF JUMP JUMPDEST JUMPDEST PUSH2 0xD6F DUP5 DUP3 DUP6 PUSH2 0xB40 JUMP JUMPDEST POP SWAP4 SWAP3 POP POP POP JUMP JUMPDEST PUSH1 0x0 DUP3 PUSH1 0x1F DUP4 ADD SLT PUSH2 0xD8C JUMPI PUSH2 0xD8B PUSH2 0x547 JUMP JUMPDEST JUMPDEST DUP2 CALLDATALOAD PUSH2 0xD9C DUP5 DUP3 PUSH1 0x20 DUP7 ADD PUSH2 0xD35 JUMP JUMPDEST SWAP2 POP POP SWAP3 SWAP2 POP POP JUMP JUMPDEST PUSH2 0xDAE DUP2 PUSH2 0x5F9 JUMP JUMPDEST DUP2 EQ PUSH2 0xDB9 JUMPI PUSH1 0x0 DUP1 REVERT JUMPDEST POP JUMP JUMPDEST PUSH1 0x0 DUP2 CALLDATALOAD SWAP1 POP PUSH2 0xDCB DUP2 PUSH2 0xDA5 JUMP JUMPDEST SWAP3 SWAP2 POP POP JUMP JUMPDEST PUSH1 0x0 PUSH1 0x60 DUP3 DUP5 SUB SLT ISZERO PUSH2 0xDE7 JUMPI PUSH2 0xDE6 PUSH2 0xCA9 JUMP JUMPDEST JUMPDEST PUSH2 0xDF1 PUSH1 0x60 PUSH2 0xCDF JUMP JUMPDEST SWAP1 POP PUSH1 0x0 PUSH2 0xE01 DUP5 DUP3 DUP6 ADD PUSH2 0xA90 JUMP JUMPDEST PUSH1 0x0 DUP4 ADD MSTORE POP PUSH1 0x20 DUP3 ADD CALLDATALOAD PUSH8 0xFFFFFFFFFFFFFFFF DUP2 GT ISZERO PUSH2 0xE25 JUMPI PUSH2 0xE24 PUSH2 0xCFA JUMP JUMPDEST JUMPDEST PUSH2 0xE31 DUP5 DUP3 DUP6 ADD PUSH2 0xD77 JUMP JUMPDEST PUSH1 0x20 DUP4 ADD MSTORE POP PUSH1 0x40 PUSH2 0xE45 DUP5 DUP3 DUP6 ADD PUSH2 0xDBC JUMP JUMPDEST PUSH1 0x40 DUP4 ADD MSTORE POP SWAP3 SWAP2 POP POP JUMP JUMPDEST PUSH1 0x0 PUSH2 0xE5D CALLDATASIZE DUP4 PUSH2 0xDD1 JUMP JUMPDEST SWAP1 POP SWAP2 SWAP1 POP JUMP JUMPDEST PUSH1 0x0 PUSH2 0xE6F DUP3 PUSH2 0x659 JUMP JUMPDEST PUSH2 0xE79 DUP2 DUP6 PUSH2 0xB35 JUMP JUMPDEST SWAP4 POP PUSH2 0xE89 DUP2 DUP6 PUSH1 0x20 DUP7 ADD PUSH2 0x675 JUMP JUMPDEST DUP1 DUP5 ADD SWAP2 POP POP SWAP3 SWAP2 POP POP JUMP JUMPDEST PUSH1 0x0 PUSH2 0xEA1 DUP3 DUP5 PUSH2 0xE64 JUMP JUMPDEST SWAP2 POP DUP2 SWAP1 POP SWAP3 SWAP2 POP POP JUMP JUMPDEST PUSH1 0x0 PUSH8 0xFFFFFFFFFFFFFFFF DUP3 GT ISZERO PUSH2 0xEC7 JUMPI PUSH2 0xEC6 PUSH2 0x9B2 JUMP JUMPDEST JUMPDEST PUSH2 0xED0 DUP3 PUSH2 0x69F JUMP JUMPDEST SWAP1 POP PUSH1 0x20 DUP2 ADD SWAP1 POP SWAP2 SWAP1 POP JUMP JUMPDEST PUSH1 0x0 PUSH2 0xEF0 PUSH2 0xEEB DUP5 PUSH2 0xEAC JUMP JUMPDEST PUSH2 0xCDF JUMP JUMPDEST SWAP1 POP DUP3 DUP2 MSTORE PUSH1 0x20 DUP2 ADD DUP5 DUP5 DUP5 ADD GT ISZERO PUSH2 0xF0C JUMPI PUSH2 0xF0B PUSH2 0xCFF JUMP JUMPDEST JUMPDEST PUSH2 0xF17 DUP5 DUP3 DUP6 PUSH2 0x675 JUMP JUMPDEST POP SWAP4 SWAP3 POP POP POP JUMP JUMPDEST PUSH1 0x0 DUP3 PUSH1 0x1F DUP4 ADD SLT PUSH2 0xF34 JUMPI PUSH2 0xF33 PUSH2 0x547 JUMP JUMPDEST JUMPDEST DUP2 MLOAD PUSH2 0xF44 DUP5 DUP3 PUSH1 0x20 DUP7 ADD PUSH2 0xEDD JUMP JUMPDEST SWAP2 POP POP SWAP3 SWAP2 POP POP JUMP JUMPDEST PUSH1 0x0 PUSH1 0x20 DUP3 DUP5 SUB SLT ISZERO PUSH2 0xF63 JUMPI PUSH2 0xF62 PUSH2 0x53D JUMP JUMPDEST JUMPDEST PUSH1 0x0 DUP3 ADD MLOAD PUSH8 0xFFFFFFFFFFFFFFFF DUP2 GT ISZERO PUSH2 0xF81 JUMPI PUSH2 0xF80 PUSH2 0x542 JUMP JUMPDEST JUMPDEST PUSH2 0xF8D DUP5 DUP3 DUP6 ADD PUSH2 0xF1F JUMP JUMPDEST SWAP2 POP POP SWAP3 SWAP2 POP POP JUMP JUMPDEST PUSH1 0x0 DUP2 MLOAD SWAP1 POP SWAP2 SWAP1 POP JUMP JUMPDEST PUSH1 0x0 PUSH2 0xFAC DUP3 PUSH2 0xF96 JUMP JUMPDEST PUSH2 0xFB6 DUP2 DUP6 PUSH2 0xC04 JUMP JUMPDEST SWAP4 POP PUSH2 0xFC6 DUP2 DUP6 PUSH1 0x20 DUP7 ADD PUSH2 0x675 JUMP JUMPDEST PUSH2 0xFCF DUP2 PUSH2 0x69F JUMP JUMPDEST DUP5 ADD SWAP2 POP POP SWAP3 SWAP2 POP POP JUMP JUMPDEST PUSH1 0x0 PUSH1 0x20 DUP3 ADD SWAP1 POP DUP2 DUP2 SUB PUSH1 0x0 DUP4 ADD MSTORE PUSH2 0xFF4 DUP2 DUP5 PUSH2 0xFA1 JUMP JUMPDEST SWAP1 POP SWAP3 SWAP2 POP POP JUMP INVALID LOG2 PUSH5 0x6970667358 0x22 SLT KECCAK256 PUSH7 0x54D5F4E0C14409 LT ADDMOD LOG1 PC 0xAB PUSH32 0x496642FB97A19B4B5422E37FDE14997E338C64736F6C63430008110033000000 "},"methodIdentifiers":{"read((address,bytes)[])":"762eaab3","write((address,bytes,uint256)[],bool)":"913821c3"}}}}}