{
    "_format": "hh-sol-artifact-1",
    "contractName": "TrustlessMulticall",
    "sourceName": "contracts/TrustlessMulticall.sol",
    "abi": [
        {
            "inputs": [
                {
                    "internalType": "uint256",
                    "name": "blockNumber",
                    "type": "uint256"
                }
            ],
            "name": "getBlockHash",
            "outputs": [
                {
                    "internalType": "bytes32",
                    "name": "",
                    "type": "bytes32"
                }
            ],
            "stateMutability": "view",
            "type": "function"
        },
        {
            "inputs": [],
            "name": "getBlockNumber",
            "outputs": [
                {
                    "internalType": "uint256",
                    "name": "",
                    "type": "uint256"
                }
            ],
            "stateMutability": "view",
            "type": "function"
        },
        {
            "inputs": [],
            "name": "getChainId",
            "outputs": [
                {
                    "internalType": "uint256",
                    "name": "",
                    "type": "uint256"
                }
            ],
            "stateMutability": "view",
            "type": "function"
        },
        {
            "inputs": [],
            "name": "getCurrentBlockCoinbase",
            "outputs": [
                {
                    "internalType": "address",
                    "name": "",
                    "type": "address"
                }
            ],
            "stateMutability": "view",
            "type": "function"
        },
        {
            "inputs": [],
            "name": "getCurrentBlockDifficulty",
            "outputs": [
                {
                    "internalType": "uint256",
                    "name": "",
                    "type": "uint256"
                }
            ],
            "stateMutability": "view",
            "type": "function"
        },
        {
            "inputs": [],
            "name": "getCurrentBlockGasLimit",
            "outputs": [
                {
                    "internalType": "uint256",
                    "name": "",
                    "type": "uint256"
                }
            ],
            "stateMutability": "view",
            "type": "function"
        },
        {
            "inputs": [],
            "name": "getCurrentBlockTimestamp",
            "outputs": [
                {
                    "internalType": "uint256",
                    "name": "",
                    "type": "uint256"
                }
            ],
            "stateMutability": "view",
            "type": "function"
        },
        {
            "inputs": [
                {
                    "internalType": "address",
                    "name": "addr",
                    "type": "address"
                }
            ],
            "name": "getEthBalance",
            "outputs": [
                {
                    "internalType": "uint256",
                    "name": "",
                    "type": "uint256"
                }
            ],
            "stateMutability": "view",
            "type": "function"
        },
        {
            "inputs": [],
            "name": "getLastBlockHash",
            "outputs": [
                {
                    "internalType": "bytes32",
                    "name": "",
                    "type": "bytes32"
                }
            ],
            "stateMutability": "view",
            "type": "function"
        },
        {
            "inputs": [
                {
                    "components": [
                        {
                            "internalType": "address",
                            "name": "target",
                            "type": "address"
                        },
                        {
                            "internalType": "bytes",
                            "name": "callData",
                            "type": "bytes"
                        }
                    ],
                    "internalType": "struct TrustlessMulticall.ReadCall[]",
                    "name": "calls",
                    "type": "tuple[]"
                }
            ],
            "name": "multicallNoRevertOnError",
            "outputs": [
                {
                    "internalType": "uint256",
                    "name": "blockNumber",
                    "type": "uint256"
                },
                {
                    "components": [
                        {
                            "internalType": "bool",
                            "name": "success",
                            "type": "bool"
                        },
                        {
                            "internalType": "bytes",
                            "name": "returnData",
                            "type": "bytes"
                        }
                    ],
                    "internalType": "struct TrustlessMulticall.ReadResult[]",
                    "name": "results",
                    "type": "tuple[]"
                }
            ],
            "stateMutability": "nonpayable",
            "type": "function"
        },
        {
            "inputs": [
                {
                    "components": [
                        {
                            "internalType": "address",
                            "name": "target",
                            "type": "address"
                        },
                        {
                            "internalType": "bytes",
                            "name": "callData",
                            "type": "bytes"
                        },
                        {
                            "internalType": "uint256",
                            "name": "value",
                            "type": "uint256"
                        }
                    ],
                    "internalType": "struct TrustlessMulticall.WriteCall[]",
                    "name": "calls",
                    "type": "tuple[]"
                }
            ],
            "name": "multicallRevertOnError",
            "outputs": [
                {
                    "internalType": "bytes[]",
                    "name": "results",
                    "type": "bytes[]"
                }
            ],
            "stateMutability": "payable",
            "type": "function"
        }
    ],
    "bytecode": "0x608060405234801561001057600080fd5b5061128b806100206000396000f3fe60806040526004361061009c5760003560e01c80634e43e6a2116100645780634e43e6a21461018a57806372425d9d146101ba57806386d516e8146101e55780638f7cddb114610210578063a8b0574e1461024e578063ee82ac5e146102795761009c565b80630f28c97d146100a157806327e86d6e146100cc5780633408e470146100f757806342cbb15c146101225780634d2301cc1461014d575b600080fd5b3480156100ad57600080fd5b506100b66102b6565b6040516100c39190610776565b60405180910390f35b3480156100d857600080fd5b506100e16102be565b6040516100ee91906107aa565b60405180910390f35b34801561010357600080fd5b5061010c6102d3565b6040516101199190610776565b60405180910390f35b34801561012e57600080fd5b506101376102db565b6040516101449190610776565b60405180910390f35b34801561015957600080fd5b50610174600480360381019061016f9190610837565b6102e3565b6040516101819190610776565b60405180910390f35b6101a4600480360381019061019f91906108c9565b610304565b6040516101b19190610a68565b60405180910390f35b3480156101c657600080fd5b506101cf610543565b6040516101dc9190610776565b60405180910390f35b3480156101f157600080fd5b506101fa61054b565b6040516102079190610776565b60405180910390f35b34801561021c57600080fd5b5061023760048036038101906102329190610ae0565b610553565b604051610245929190610c47565b60405180910390f35b34801561025a57600080fd5b506102636106f7565b6040516102709190610c86565b60405180910390f35b34801561028557600080fd5b506102a0600480360381019061029b9190610ccd565b6106ff565b6040516102ad91906107aa565b60405180910390f35b600042905090565b60006001436102cd9190610d29565b40905090565b600046905090565b600043905090565b60008173ffffffffffffffffffffffffffffffffffffffff16319050919050565b606061030e61070a565b8383905067ffffffffffffffff81111561032b5761032a610d5d565b5b60405190808252806020026020018201604052801561035e57816020015b60608152602001906001900390816103495790505b50915060005b8484905081101561053b5784848281811061038257610381610d8c565b5b90506020028101906103949190610dca565b61039d90610f7d565b9150600080600084604001511161042357836000015173ffffffffffffffffffffffffffffffffffffffff1684602001516040516103db9190610fcc565b6000604051808303816000865af19150503d8060008114610418576040519150601f19603f3d011682016040523d82523d6000602084013e61041d565b606091505b50610499565b836000015173ffffffffffffffffffffffffffffffffffffffff16846040015185602001516040516104559190610fcc565b60006040518083038185875af1925050503d8060008114610492576040519150601f19603f3d011682016040523d82523d6000602084013e610497565b606091505b505b9150915081610507576044815110156104b157600080fd5b600481019050808060200190518101906104cb9190611084565b6040517f08c379a00000000000000000000000000000000000000000000000000000000081526004016104fe9190611122565b60405180910390fd5b8085848151811061051b5761051a610d8c565b5b60200260200101819052505050808061053390611144565b915050610364565b505092915050565b600044905090565b600045905090565b600060608383905067ffffffffffffffff81111561057457610573610d5d565b5b6040519080825280602002602001820160405280156105ad57816020015b61059a610741565b8152602001906001900390816105925790505b50905060005b848490508110156106ec578484828181106105d1576105d0610d8c565b5b90506020028101906105e3919061118c565b60000160208101906105f59190610837565b73ffffffffffffffffffffffffffffffffffffffff1685858381811061061e5761061d610d8c565b5b9050602002810190610630919061118c565b806020019061063f91906111b4565b60405161064d92919061123c565b6000604051808303816000865af19150503d806000811461068a576040519150601f19603f3d011682016040523d82523d6000602084013e61068f565b606091505b508383815181106106a3576106a2610d8c565b5b60200260200101516000018484815181106106c1576106c0610d8c565b5b60200260200101516020018290528215151515815250505080806106e490611144565b9150506105b3565b504391509250929050565b600041905090565b600081409050919050565b6040518060600160405280600073ffffffffffffffffffffffffffffffffffffffff16815260200160608152602001600081525090565b6040518060400160405280600015158152602001606081525090565b6000819050919050565b6107708161075d565b82525050565b600060208201905061078b6000830184610767565b92915050565b6000819050919050565b6107a481610791565b82525050565b60006020820190506107bf600083018461079b565b92915050565b6000604051905090565b600080fd5b600080fd5b600073ffffffffffffffffffffffffffffffffffffffff82169050919050565b6000610804826107d9565b9050919050565b610814816107f9565b811461081f57600080fd5b50565b6000813590506108318161080b565b92915050565b60006020828403121561084d5761084c6107cf565b5b600061085b84828501610822565b91505092915050565b600080fd5b600080fd5b600080fd5b60008083601f84011261088957610888610864565b5b8235905067ffffffffffffffff8111156108a6576108a5610869565b5b6020830191508360208202830111156108c2576108c161086e565b5b9250929050565b600080602083850312156108e0576108df6107cf565b5b600083013567ffffffffffffffff8111156108fe576108fd6107d4565b5b61090a85828601610873565b92509250509250929050565b600081519050919050565b600082825260208201905092915050565b6000819050602082019050919050565b600081519050919050565b600082825260208201905092915050565b60005b8381101561097c578082015181840152602081019050610961565b60008484015250505050565b6000601f19601f8301169050919050565b60006109a482610942565b6109ae818561094d565b93506109be81856020860161095e565b6109c781610988565b840191505092915050565b60006109de8383610999565b905092915050565b6000602082019050919050565b60006109fe82610916565b610a088185610921565b935083602082028501610a1a85610932565b8060005b85811015610a565784840389528151610a3785826109d2565b9450610a42836109e6565b925060208a01995050600181019050610a1e565b50829750879550505050505092915050565b60006020820190508181036000830152610a8281846109f3565b905092915050565b60008083601f840112610aa057610a9f610864565b5b8235905067ffffffffffffffff811115610abd57610abc610869565b5b602083019150836020820283011115610ad957610ad861086e565b5b9250929050565b60008060208385031215610af757610af66107cf565b5b600083013567ffffffffffffffff811115610b1557610b146107d4565b5b610b2185828601610a8a565b92509250509250929050565b600081519050919050565b600082825260208201905092915050565b6000819050602082019050919050565b60008115159050919050565b610b6e81610b59565b82525050565b6000604083016000830151610b8c6000860182610b65565b5060208301518482036020860152610ba48282610999565b9150508091505092915050565b6000610bbd8383610b74565b905092915050565b6000602082019050919050565b6000610bdd82610b2d565b610be78185610b38565b935083602082028501610bf985610b49565b8060005b85811015610c355784840389528151610c168582610bb1565b9450610c2183610bc5565b925060208a01995050600181019050610bfd565b50829750879550505050505092915050565b6000604082019050610c5c6000830185610767565b8181036020830152610c6e8184610bd2565b90509392505050565b610c80816107f9565b82525050565b6000602082019050610c9b6000830184610c77565b92915050565b610caa8161075d565b8114610cb557600080fd5b50565b600081359050610cc781610ca1565b92915050565b600060208284031215610ce357610ce26107cf565b5b6000610cf184828501610cb8565b91505092915050565b7f4e487b7100000000000000000000000000000000000000000000000000000000600052601160045260246000fd5b6000610d348261075d565b9150610d3f8361075d565b9250828203905081811115610d5757610d56610cfa565b5b92915050565b7f4e487b7100000000000000000000000000000000000000000000000000000000600052604160045260246000fd5b7f4e487b7100000000000000000000000000000000000000000000000000000000600052603260045260246000fd5b600080fd5b600080fd5b600080fd5b600082356001606003833603038112610de657610de5610dbb565b5b80830191505092915050565b600080fd5b610e0082610988565b810181811067ffffffffffffffff82111715610e1f57610e1e610d5d565b5b80604052505050565b6000610e326107c5565b9050610e3e8282610df7565b919050565b600080fd5b600080fd5b600067ffffffffffffffff821115610e6857610e67610d5d565b5b610e7182610988565b9050602081019050919050565b82818337600083830152505050565b6000610ea0610e9b84610e4d565b610e28565b905082815260208101848484011115610ebc57610ebb610e48565b5b610ec7848285610e7e565b509392505050565b600082601f830112610ee457610ee3610864565b5b8135610ef4848260208601610e8d565b91505092915050565b600060608284031215610f1357610f12610df2565b5b610f1d6060610e28565b90506000610f2d84828501610822565b600083015250602082013567ffffffffffffffff811115610f5157610f50610e43565b5b610f5d84828501610ecf565b6020830152506040610f7184828501610cb8565b60408301525092915050565b6000610f893683610efd565b9050919050565b600081905092915050565b6000610fa682610942565b610fb08185610f90565b9350610fc081856020860161095e565b80840191505092915050565b6000610fd88284610f9b565b915081905092915050565b600067ffffffffffffffff821115610ffe57610ffd610d5d565b5b61100782610988565b9050602081019050919050565b600061102761102284610fe3565b610e28565b90508281526020810184848401111561104357611042610e48565b5b61104e84828561095e565b509392505050565b600082601f83011261106b5761106a610864565b5b815161107b848260208601611014565b91505092915050565b60006020828403121561109a576110996107cf565b5b600082015167ffffffffffffffff8111156110b8576110b76107d4565b5b6110c484828501611056565b91505092915050565b600081519050919050565b600082825260208201905092915050565b60006110f4826110cd565b6110fe81856110d8565b935061110e81856020860161095e565b61111781610988565b840191505092915050565b6000602082019050818103600083015261113c81846110e9565b905092915050565b600061114f8261075d565b91507fffffffffffffffffffffffffffffffffffffffffffffffffffffffffffffffff820361118157611180610cfa565b5b600182019050919050565b6000823560016040038336030381126111a8576111a7610dbb565b5b80830191505092915050565b600080833560016020038436030381126111d1576111d0610dbb565b5b80840192508235915067ffffffffffffffff8211156111f3576111f2610dc0565b5b60208301925060018202360383131561120f5761120e610dc5565b5b509250929050565b60006112238385610f90565b9350611230838584610e7e565b82840190509392505050565b6000611249828486611217565b9150819050939250505056fea26469706673582212202199641fb6875ec913613c98944995d6197b21e08119652545a0d7ae5d836a3f64736f6c63430008110033",
    "linkReferences": {},
    "deployedLinkReferences": {}
}