{"contracts/test/SimpleViewContract.sol":{"SimpleViewContract":{"abi":[{"inputs":[],"name":"bothValues","outputs":[{"internalType":"uint256","name":"first","type":"uint256"},{"internalType":"uint256","name":"second","type":"uint256"}],"stateMutability":"view","type":"function"},{"inputs":[],"name":"firstValue","outputs":[{"internalType":"uint256","name":"","type":"uint256"}],"stateMutability":"view","type":"function"},{"inputs":[],"name":"secondValue","outputs":[{"internalType":"uint256","name":"","type":"uint256"}],"stateMutability":"view","type":"function"},{"inputs":[{"internalType":"uint256","name":"_firstValue","type":"uint256"}],"name":"setFirstValue","outputs":[],"stateMutability":"nonpayable","type":"function"},{"inputs":[{"internalType":"uint256","name":"_secondValue","type":"uint256"}],"name":"setSecondValue","outputs":[],"stateMutability":"nonpayable","type":"function"}],"devdoc":{"kind":"dev","methods":{},"version":1},"evm":{"bytecode":{"linkReferences":{},"object":"60806040526001600055600260015534801561001a57600080fd5b506102118061002a6000396000f3fe608060405234801561001057600080fd5b50600436106100575760003560e01c80630db118501461005c5780632cfed6111461007b5780637b94ce2914610099578063a708edc2146100b7578063b5ad5550146100d3575b600080fd5b6100646100ef565b604051610072929190610139565b60405180910390f35b610083610100565b6040516100909190610162565b60405180910390f35b6100a1610106565b6040516100ae9190610162565b60405180910390f35b6100d160048036038101906100cc91906101ae565b61010c565b005b6100ed60048036038101906100e891906101ae565b610116565b005b600080600054915060015490509091565b60015481565b60005481565b8060008190555050565b8060008190555050565b6000819050919050565b61013381610120565b82525050565b600060408201905061014e600083018561012a565b61015b602083018461012a565b9392505050565b6000602082019050610177600083018461012a565b92915050565b600080fd5b61018b81610120565b811461019657600080fd5b50565b6000813590506101a881610182565b92915050565b6000602082840312156101c4576101c361017d565b5b60006101d284828501610199565b9150509291505056fea26469706673582212204270d4bc75e834a1558adf15b2bd23fefe21aa3fbcde85fcbeccd5458898b65964736f6c63430008110033","opcodes":"PUSH1 0x80 PUSH1 0x40 MSTORE PUSH1 0x1 PUSH1 0x0 SSTORE PUSH1 0x2 PUSH1 0x1 SSTORE CALLVALUE DUP1 ISZERO PUSH2 0x1A JUMPI PUSH1 0x0 DUP1 REVERT JUMPDEST POP PUSH2 0x211 DUP1 PUSH2 0x2A PUSH1 0x0 CODECOPY PUSH1 0x0 RETURN INVALID PUSH1 0x80 PUSH1 0x40 MSTORE CALLVALUE DUP1 ISZERO PUSH2 0x10 JUMPI PUSH1 0x0 DUP1 REVERT JUMPDEST POP PUSH1 0x4 CALLDATASIZE LT PUSH2 0x57 JUMPI PUSH1 0x0 CALLDATALOAD PUSH1 0xE0 SHR DUP1 PUSH4 0xDB11850 EQ PUSH2 0x5C JUMPI DUP1 PUSH4 0x2CFED611 EQ PUSH2 0x7B JUMPI DUP1 PUSH4 0x7B94CE29 EQ PUSH2 0x99 JUMPI DUP1 PUSH4 0xA708EDC2 EQ PUSH2 0xB7 JUMPI DUP1 PUSH4 0xB5AD5550 EQ PUSH2 0xD3 JUMPI JUMPDEST PUSH1 0x0 DUP1 REVERT JUMPDEST PUSH2 0x64 PUSH2 0xEF JUMP JUMPDEST PUSH1 0x40 MLOAD PUSH2 0x72 SWAP3 SWAP2 SWAP1 PUSH2 0x139 JUMP JUMPDEST PUSH1 0x40 MLOAD DUP1 SWAP2 SUB SWAP1 RETURN JUMPDEST PUSH2 0x83 PUSH2 0x100 JUMP JUMPDEST PUSH1 0x40 MLOAD PUSH2 0x90 SWAP2 SWAP1 PUSH2 0x162 JUMP JUMPDEST PUSH1 0x40 MLOAD DUP1 SWAP2 SUB SWAP1 RETURN JUMPDEST PUSH2 0xA1 PUSH2 0x106 JUMP JUMPDEST PUSH1 0x40 MLOAD PUSH2 0xAE SWAP2 SWAP1 PUSH2 0x162 JUMP JUMPDEST PUSH1 0x40 MLOAD DUP1 SWAP2 SUB SWAP1 RETURN JUMPDEST PUSH2 0xD1 PUSH1 0x4 DUP1 CALLDATASIZE SUB DUP2 ADD SWAP1 PUSH2 0xCC SWAP2 SWAP1 PUSH2 0x1AE JUMP JUMPDEST PUSH2 0x10C JUMP JUMPDEST STOP JUMPDEST PUSH2 0xED PUSH1 0x4 DUP1 CALLDATASIZE SUB DUP2 ADD SWAP1 PUSH2 0xE8 SWAP2 SWAP1 PUSH2 0x1AE JUMP JUMPDEST PUSH2 0x116 JUMP JUMPDEST STOP JUMPDEST PUSH1 0x0 DUP1 PUSH1 0x0 SLOAD SWAP2 POP PUSH1 0x1 SLOAD SWAP1 POP SWAP1 SWAP2 JUMP JUMPDEST PUSH1 0x1 SLOAD DUP2 JUMP JUMPDEST PUSH1 0x0 SLOAD DUP2 JUMP JUMPDEST DUP1 PUSH1 0x0 DUP2 SWAP1 SSTORE POP POP JUMP JUMPDEST DUP1 PUSH1 0x0 DUP2 SWAP1 SSTORE POP POP JUMP JUMPDEST PUSH1 0x0 DUP2 SWAP1 POP SWAP2 SWAP1 POP JUMP JUMPDEST PUSH2 0x133 DUP2 PUSH2 0x120 JUMP JUMPDEST DUP3 MSTORE POP POP JUMP JUMPDEST PUSH1 0x0 PUSH1 0x40 DUP3 ADD SWAP1 POP PUSH2 0x14E PUSH1 0x0 DUP4 ADD DUP6 PUSH2 0x12A JUMP JUMPDEST PUSH2 0x15B PUSH1 0x20 DUP4 ADD DUP5 PUSH2 0x12A JUMP JUMPDEST SWAP4 SWAP3 POP POP POP JUMP JUMPDEST PUSH1 0x0 PUSH1 0x20 DUP3 ADD SWAP1 POP PUSH2 0x177 PUSH1 0x0 DUP4 ADD DUP5 PUSH2 0x12A JUMP JUMPDEST SWAP3 SWAP2 POP POP JUMP JUMPDEST PUSH1 0x0 DUP1 REVERT JUMPDEST PUSH2 0x18B DUP2 PUSH2 0x120 JUMP JUMPDEST DUP2 EQ PUSH2 0x196 JUMPI PUSH1 0x0 DUP1 REVERT JUMPDEST POP JUMP JUMPDEST PUSH1 0x0 DUP2 CALLDATALOAD SWAP1 POP PUSH2 0x1A8 DUP2 PUSH2 0x182 JUMP JUMPDEST SWAP3 SWAP2 POP POP JUMP JUMPDEST PUSH1 0x0 PUSH1 0x20 DUP3 DUP5 SUB SLT ISZERO PUSH2 0x1C4 JUMPI PUSH2 0x1C3 PUSH2 0x17D JUMP JUMPDEST JUMPDEST PUSH1 0x0 PUSH2 0x1D2 DUP5 DUP3 DUP6 ADD PUSH2 0x199 JUMP JUMPDEST SWAP2 POP POP SWAP3 SWAP2 POP POP JUMP INVALID LOG2 PUSH5 0x6970667358 0x22 SLT KECCAK256 TIMESTAMP PUSH17 0xD4BC75E834A1558ADF15B2BD23FEFE21AA EXTCODEHASH 0xBC 0xDE DUP6 0xFC 0xBE 0xCC 0xD5 GASLIMIT DUP9 SWAP9 0xB6 MSIZE PUSH5 0x736F6C6343 STOP ADDMOD GT STOP CALLER "},"gasEstimates":{"creation":{"codeDepositCost":"105800","executionCost":"44365","totalCost":"150165"},"external":{"bothValues()":"infinite","firstValue()":"2451","secondValue()":"2429","setFirstValue(uint256)":"22586","setSecondValue(uint256)":"22564"}},"methodIdentifiers":{"bothValues()":"0db11850","firstValue()":"7b94ce29","secondValue()":"2cfed611","setFirstValue(uint256)":"b5ad5550","setSecondValue(uint256)":"a708edc2"}},"storageLayout":{"storage":[{"astId":309,"contract":"contracts/test/SimpleViewContract.sol:SimpleViewContract","label":"firstValue","offset":0,"slot":"0","type":"t_uint256"},{"astId":312,"contract":"contracts/test/SimpleViewContract.sol:SimpleViewContract","label":"secondValue","offset":0,"slot":"1","type":"t_uint256"}],"types":{"t_uint256":{"encoding":"inplace","label":"uint256","numberOfBytes":"32"}}},"userdoc":{"kind":"user","methods":{},"version":1}}}}