{"contracts/TrustlessMulticall.sol":{"TrustlessMulticall":{"abi":[{"inputs":[{"components":[{"internalType":"address","name":"target","type":"address"},{"internalType":"bytes","name":"callData","type":"bytes"}],"internalType":"struct TrustlessMulticallRead.ReadCall[]","name":"calls","type":"tuple[]"}],"name":"read","outputs":[{"internalType":"uint256","name":"blockNumber","type":"uint256"},{"components":[{"internalType":"bool","name":"success","type":"bool"},{"internalType":"bytes","name":"returnData","type":"bytes"}],"internalType":"struct TrustlessMulticallRead.ReadResult[]","name":"results","type":"tuple[]"}],"stateMutability":"nonpayable","type":"function"},{"inputs":[{"components":[{"internalType":"address","name":"target","type":"address"},{"internalType":"bytes","name":"callData","type":"bytes"},{"internalType":"uint256","name":"value","type":"uint256"}],"internalType":"struct TrustlessMulticallWrite.WriteCall[]","name":"calls","type":"tuple[]"},{"internalType":"bool","name":"revertOnCallFailure","type":"bool"}],"name":"write","outputs":[{"internalType":"bytes[]","name":"results","type":"bytes[]"}],"stateMutability":"payable","type":"function"}],"devdoc":{"kind":"dev","methods":{"read((address,bytes)[])":{"params":{"calls":"The structured calls to make."},"returns":{"blockNumber":"The current block number used to allow the caller to determine   the recency of the data returned.","results":"The return data from the calls, along with whether each call was successful or not."}},"write((address,bytes,uint256)[],bool)":{"params":{"calls":"The structured calls, including eth value to send","revertOnCallFailure":"Whether or not to revert the entire transaction if any underlying call fails."},"returns":{"results":"The results of each call"}}},"title":"TrustlessMulticall","version":1},"evm":{"bytecode":{"linkReferences":{},"object":"608060405234801561001057600080fd5b5060016000819055506110f6806100286000396000f3fe6080604052600436106100295760003560e01c8063762eaab31461002e578063913821c31461006c575b600080fd5b34801561003a57600080fd5b5061005560048036038101906100509190610604565b61009c565b604051610063929190610814565b60405180910390f35b610086600480360381019061008191906108c6565b610240565b60405161009391906109e8565b60405180910390f35b600060608383905067ffffffffffffffff8111156100bd576100bc610a0a565b5b6040519080825280602002602001820160405280156100f657816020015b6100e3610538565b8152602001906001900390816100db5790505b50905060005b848490508110156102355784848281811061011a57610119610a39565b5b905060200281019061012c9190610a77565b600001602081019061013e9190610afd565b73ffffffffffffffffffffffffffffffffffffffff1685858381811061016757610166610a39565b5b90506020028101906101799190610a77565b80602001906101889190610b2a565b604051610196929190610bcc565b6000604051808303816000865af19150503d80600081146101d3576040519150601f19603f3d011682016040523d82523d6000602084013e6101d8565b606091505b508383815181106101ec576101eb610a39565b5b602002602001015160000184848151811061020a57610209610a39565b5b602002602001015160200182905282151515158152505050808061022d90610c14565b9150506100fc565b504391509250929050565b6060600260005403610287576040517f08c379a000000000000000000000000000000000000000000000000000000000815260040161027e90610cb9565b60405180910390fd5b60026000819055506102983361052d565b6102d7576040517f08c379a00000000000000000000000000000000000000000000000000000000081526004016102ce90610d25565b60405180910390fd5b6102df610554565b8484905067ffffffffffffffff8111156102fc576102fb610a0a565b5b60405190808252806020026020018201604052801561032f57816020015b606081526020019060019003908161031a5790505b5091506000606060005b8787905081101561051a5787878281811061035757610356610a39565b5b90506020028101906103699190610d45565b61037290610f15565b935060008460400151116103f557836000015173ffffffffffffffffffffffffffffffffffffffff1684602001516040516103ad9190610f59565b6000604051808303816000865af19150503d80600081146103ea576040519150601f19603f3d011682016040523d82523d6000602084013e6103ef565b606091505b5061046b565b836000015173ffffffffffffffffffffffffffffffffffffffff16846040015185602001516040516104279190610f59565b60006040518083038185875af1925050503d8060008114610464576040519150601f19603f3d011682016040523d82523d6000602084013e610469565b606091505b505b809350819450505085801561047e575082155b156104e85760448251101561049257600080fd5b600482019150818060200190518101906104ac9190611011565b6040517f08c379a00000000000000000000000000000000000000000000000000000000081526004016104df919061109e565b60405180910390fd5b818582815181106104fc576104fb610a39565b5b6020026020010181905250808061051290610c14565b915050610339565b5050505060016000819055509392505050565b600060019050919050565b6040518060400160405280600015158152602001606081525090565b6040518060600160405280600073ffffffffffffffffffffffffffffffffffffffff16815260200160608152602001600081525090565b6000604051905090565b600080fd5b600080fd5b600080fd5b600080fd5b600080fd5b60008083601f8401126105c4576105c361059f565b5b8235905067ffffffffffffffff8111156105e1576105e06105a4565b5b6020830191508360208202830111156105fd576105fc6105a9565b5b9250929050565b6000806020838503121561061b5761061a610595565b5b600083013567ffffffffffffffff8111156106395761063861059a565b5b610645858286016105ae565b92509250509250929050565b6000819050919050565b61066481610651565b82525050565b600081519050919050565b600082825260208201905092915050565b6000819050602082019050919050565b60008115159050919050565b6106ab81610696565b82525050565b600081519050919050565b600082825260208201905092915050565b60005b838110156106eb5780820151818401526020810190506106d0565b60008484015250505050565b6000601f19601f8301169050919050565b6000610713826106b1565b61071d81856106bc565b935061072d8185602086016106cd565b610736816106f7565b840191505092915050565b600060408301600083015161075960008601826106a2565b50602083015184820360208601526107718282610708565b9150508091505092915050565b600061078a8383610741565b905092915050565b6000602082019050919050565b60006107aa8261066a565b6107b48185610675565b9350836020820285016107c685610686565b8060005b8581101561080257848403895281516107e3858261077e565b94506107ee83610792565b925060208a019950506001810190506107ca565b50829750879550505050505092915050565b6000604082019050610829600083018561065b565b818103602083015261083b818461079f565b90509392505050565b60008083601f84011261085a5761085961059f565b5b8235905067ffffffffffffffff811115610877576108766105a4565b5b602083019150836020820283011115610893576108926105a9565b5b9250929050565b6108a381610696565b81146108ae57600080fd5b50565b6000813590506108c08161089a565b92915050565b6000806000604084860312156108df576108de610595565b5b600084013567ffffffffffffffff8111156108fd576108fc61059a565b5b61090986828701610844565b9350935050602061091c868287016108b1565b9150509250925092565b600081519050919050565b600082825260208201905092915050565b6000819050602082019050919050565b600061095e8383610708565b905092915050565b6000602082019050919050565b600061097e82610926565b6109888185610931565b93508360208202850161099a85610942565b8060005b858110156109d657848403895281516109b78582610952565b94506109c283610966565b925060208a0199505060018101905061099e565b50829750879550505050505092915050565b60006020820190508181036000830152610a028184610973565b905092915050565b7f4e487b7100000000000000000000000000000000000000000000000000000000600052604160045260246000fd5b7f4e487b7100000000000000000000000000000000000000000000000000000000600052603260045260246000fd5b600080fd5b600080fd5b600080fd5b600082356001604003833603038112610a9357610a92610a68565b5b80830191505092915050565b600073ffffffffffffffffffffffffffffffffffffffff82169050919050565b6000610aca82610a9f565b9050919050565b610ada81610abf565b8114610ae557600080fd5b50565b600081359050610af781610ad1565b92915050565b600060208284031215610b1357610b12610595565b5b6000610b2184828501610ae8565b91505092915050565b60008083356001602003843603038112610b4757610b46610a68565b5b80840192508235915067ffffffffffffffff821115610b6957610b68610a6d565b5b602083019250600182023603831315610b8557610b84610a72565b5b509250929050565b600081905092915050565b82818337600083830152505050565b6000610bb38385610b8d565b9350610bc0838584610b98565b82840190509392505050565b6000610bd9828486610ba7565b91508190509392505050565b7f4e487b7100000000000000000000000000000000000000000000000000000000600052601160045260246000fd5b6000610c1f82610651565b91507fffffffffffffffffffffffffffffffffffffffffffffffffffffffffffffffff8203610c5157610c50610be5565b5b600182019050919050565b600082825260208201905092915050565b7f5265656e7472616e637947756172643a207265656e7472616e742063616c6c00600082015250565b6000610ca3601f83610c5c565b9150610cae82610c6d565b602082019050919050565b60006020820190508181036000830152610cd281610c96565b9050919050565b7f4e6f7420417574686f72697a65642e0000000000000000000000000000000000600082015250565b6000610d0f600f83610c5c565b9150610d1a82610cd9565b602082019050919050565b60006020820190508181036000830152610d3e81610d02565b9050919050565b600082356001606003833603038112610d6157610d60610a68565b5b80830191505092915050565b600080fd5b610d7b826106f7565b810181811067ffffffffffffffff82111715610d9a57610d99610a0a565b5b80604052505050565b6000610dad61058b565b9050610db98282610d72565b919050565b600080fd5b600080fd5b600067ffffffffffffffff821115610de357610de2610a0a565b5b610dec826106f7565b9050602081019050919050565b6000610e0c610e0784610dc8565b610da3565b905082815260208101848484011115610e2857610e27610dc3565b5b610e33848285610b98565b509392505050565b600082601f830112610e5057610e4f61059f565b5b8135610e60848260208601610df9565b91505092915050565b610e7281610651565b8114610e7d57600080fd5b50565b600081359050610e8f81610e69565b92915050565b600060608284031215610eab57610eaa610d6d565b5b610eb56060610da3565b90506000610ec584828501610ae8565b600083015250602082013567ffffffffffffffff811115610ee957610ee8610dbe565b5b610ef584828501610e3b565b6020830152506040610f0984828501610e80565b60408301525092915050565b6000610f213683610e95565b9050919050565b6000610f33826106b1565b610f3d8185610b8d565b9350610f4d8185602086016106cd565b80840191505092915050565b6000610f658284610f28565b915081905092915050565b600067ffffffffffffffff821115610f8b57610f8a610a0a565b5b610f94826106f7565b9050602081019050919050565b6000610fb4610faf84610f70565b610da3565b905082815260208101848484011115610fd057610fcf610dc3565b5b610fdb8482856106cd565b509392505050565b600082601f830112610ff857610ff761059f565b5b8151611008848260208601610fa1565b91505092915050565b60006020828403121561102757611026610595565b5b600082015167ffffffffffffffff8111156110455761104461059a565b5b61105184828501610fe3565b91505092915050565b600081519050919050565b60006110708261105a565b61107a8185610c5c565b935061108a8185602086016106cd565b611093816106f7565b840191505092915050565b600060208201905081810360008301526110b88184611065565b90509291505056fea26469706673582212200c8157ac472b61ee40941063c96e3f64659211794a75699a0522e9bbcc26c4cb64736f6c63430008110033","opcodes":"PUSH1 0x80 PUSH1 0x40 MSTORE CALLVALUE DUP1 ISZERO PUSH2 0x10 JUMPI PUSH1 0x0 DUP1 REVERT JUMPDEST POP PUSH1 0x1 PUSH1 0x0 DUP2 SWAP1 SSTORE POP PUSH2 0x10F6 DUP1 PUSH2 0x28 PUSH1 0x0 CODECOPY PUSH1 0x0 RETURN INVALID PUSH1 0x80 PUSH1 0x40 MSTORE PUSH1 0x4 CALLDATASIZE LT PUSH2 0x29 JUMPI PUSH1 0x0 CALLDATALOAD PUSH1 0xE0 SHR DUP1 PUSH4 0x762EAAB3 EQ PUSH2 0x2E JUMPI DUP1 PUSH4 0x913821C3 EQ PUSH2 0x6C JUMPI JUMPDEST PUSH1 0x0 DUP1 REVERT JUMPDEST CALLVALUE DUP1 ISZERO PUSH2 0x3A JUMPI PUSH1 0x0 DUP1 REVERT JUMPDEST POP PUSH2 0x55 PUSH1 0x4 DUP1 CALLDATASIZE SUB DUP2 ADD SWAP1 PUSH2 0x50 SWAP2 SWAP1 PUSH2 0x604 JUMP JUMPDEST PUSH2 0x9C JUMP JUMPDEST PUSH1 0x40 MLOAD PUSH2 0x63 SWAP3 SWAP2 SWAP1 PUSH2 0x814 JUMP JUMPDEST PUSH1 0x40 MLOAD DUP1 SWAP2 SUB SWAP1 RETURN JUMPDEST PUSH2 0x86 PUSH1 0x4 DUP1 CALLDATASIZE SUB DUP2 ADD SWAP1 PUSH2 0x81 SWAP2 SWAP1 PUSH2 0x8C6 JUMP JUMPDEST PUSH2 0x240 JUMP JUMPDEST PUSH1 0x40 MLOAD PUSH2 0x93 SWAP2 SWAP1 PUSH2 0x9E8 JUMP JUMPDEST PUSH1 0x40 MLOAD DUP1 SWAP2 SUB SWAP1 RETURN JUMPDEST PUSH1 0x0 PUSH1 0x60 DUP4 DUP4 SWAP1 POP PUSH8 0xFFFFFFFFFFFFFFFF DUP2 GT ISZERO PUSH2 0xBD JUMPI PUSH2 0xBC PUSH2 0xA0A JUMP JUMPDEST JUMPDEST PUSH1 0x40 MLOAD SWAP1 DUP1 DUP3 MSTORE DUP1 PUSH1 0x20 MUL PUSH1 0x20 ADD DUP3 ADD PUSH1 0x40 MSTORE DUP1 ISZERO PUSH2 0xF6 JUMPI DUP2 PUSH1 0x20 ADD JUMPDEST PUSH2 0xE3 PUSH2 0x538 JUMP JUMPDEST DUP2 MSTORE PUSH1 0x20 ADD SWAP1 PUSH1 0x1 SWAP1 SUB SWAP1 DUP2 PUSH2 0xDB JUMPI SWAP1 POP JUMPDEST POP SWAP1 POP PUSH1 0x0 JUMPDEST DUP5 DUP5 SWAP1 POP DUP2 LT ISZERO PUSH2 0x235 JUMPI DUP5 DUP5 DUP3 DUP2 DUP2 LT PUSH2 0x11A JUMPI PUSH2 0x119 PUSH2 0xA39 JUMP JUMPDEST JUMPDEST SWAP1 POP PUSH1 0x20 MUL DUP2 ADD SWAP1 PUSH2 0x12C SWAP2 SWAP1 PUSH2 0xA77 JUMP JUMPDEST PUSH1 0x0 ADD PUSH1 0x20 DUP2 ADD SWAP1 PUSH2 0x13E SWAP2 SWAP1 PUSH2 0xAFD JUMP JUMPDEST PUSH20 0xFFFFFFFFFFFFFFFFFFFFFFFFFFFFFFFFFFFFFFFF AND DUP6 DUP6 DUP4 DUP2 DUP2 LT PUSH2 0x167 JUMPI PUSH2 0x166 PUSH2 0xA39 JUMP JUMPDEST JUMPDEST SWAP1 POP PUSH1 0x20 MUL DUP2 ADD SWAP1 PUSH2 0x179 SWAP2 SWAP1 PUSH2 0xA77 JUMP JUMPDEST DUP1 PUSH1 0x20 ADD SWAP1 PUSH2 0x188 SWAP2 SWAP1 PUSH2 0xB2A JUMP JUMPDEST PUSH1 0x40 MLOAD PUSH2 0x196 SWAP3 SWAP2 SWAP1 PUSH2 0xBCC JUMP JUMPDEST PUSH1 0x0 PUSH1 0x40 MLOAD DUP1 DUP4 SUB DUP2 PUSH1 0x0 DUP7 GAS CALL SWAP2 POP POP RETURNDATASIZE DUP1 PUSH1 0x0 DUP2 EQ PUSH2 0x1D3 JUMPI PUSH1 0x40 MLOAD SWAP2 POP PUSH1 0x1F NOT PUSH1 0x3F RETURNDATASIZE ADD AND DUP3 ADD PUSH1 0x40 MSTORE RETURNDATASIZE DUP3 MSTORE RETURNDATASIZE PUSH1 0x0 PUSH1 0x20 DUP5 ADD RETURNDATACOPY PUSH2 0x1D8 JUMP JUMPDEST PUSH1 0x60 SWAP2 POP JUMPDEST POP DUP4 DUP4 DUP2 MLOAD DUP2 LT PUSH2 0x1EC JUMPI PUSH2 0x1EB PUSH2 0xA39 JUMP JUMPDEST JUMPDEST PUSH1 0x20 MUL PUSH1 0x20 ADD ADD MLOAD PUSH1 0x0 ADD DUP5 DUP5 DUP2 MLOAD DUP2 LT PUSH2 0x20A JUMPI PUSH2 0x209 PUSH2 0xA39 JUMP JUMPDEST JUMPDEST PUSH1 0x20 MUL PUSH1 0x20 ADD ADD MLOAD PUSH1 0x20 ADD DUP3 SWAP1 MSTORE DUP3 ISZERO ISZERO ISZERO ISZERO DUP2 MSTORE POP POP POP DUP1 DUP1 PUSH2 0x22D SWAP1 PUSH2 0xC14 JUMP JUMPDEST SWAP2 POP POP PUSH2 0xFC JUMP JUMPDEST POP NUMBER SWAP2 POP SWAP3 POP SWAP3 SWAP1 POP JUMP JUMPDEST PUSH1 0x60 PUSH1 0x2 PUSH1 0x0 SLOAD SUB PUSH2 0x287 JUMPI PUSH1 0x40 MLOAD PUSH32 0x8C379A000000000000000000000000000000000000000000000000000000000 DUP2 MSTORE PUSH1 0x4 ADD PUSH2 0x27E SWAP1 PUSH2 0xCB9 JUMP JUMPDEST PUSH1 0x40 MLOAD DUP1 SWAP2 SUB SWAP1 REVERT JUMPDEST PUSH1 0x2 PUSH1 0x0 DUP2 SWAP1 SSTORE POP PUSH2 0x298 CALLER PUSH2 0x52D JUMP JUMPDEST PUSH2 0x2D7 JUMPI PUSH1 0x40 MLOAD PUSH32 0x8C379A000000000000000000000000000000000000000000000000000000000 DUP2 MSTORE PUSH1 0x4 ADD PUSH2 0x2CE SWAP1 PUSH2 0xD25 JUMP JUMPDEST PUSH1 0x40 MLOAD DUP1 SWAP2 SUB SWAP1 REVERT JUMPDEST PUSH2 0x2DF PUSH2 0x554 JUMP JUMPDEST DUP5 DUP5 SWAP1 POP PUSH8 0xFFFFFFFFFFFFFFFF DUP2 GT ISZERO PUSH2 0x2FC JUMPI PUSH2 0x2FB PUSH2 0xA0A JUMP JUMPDEST JUMPDEST PUSH1 0x40 MLOAD SWAP1 DUP1 DUP3 MSTORE DUP1 PUSH1 0x20 MUL PUSH1 0x20 ADD DUP3 ADD PUSH1 0x40 MSTORE DUP1 ISZERO PUSH2 0x32F JUMPI DUP2 PUSH1 0x20 ADD JUMPDEST PUSH1 0x60 DUP2 MSTORE PUSH1 0x20 ADD SWAP1 PUSH1 0x1 SWAP1 SUB SWAP1 DUP2 PUSH2 0x31A JUMPI SWAP1 POP JUMPDEST POP SWAP2 POP PUSH1 0x0 PUSH1 0x60 PUSH1 0x0 JUMPDEST DUP8 DUP8 SWAP1 POP DUP2 LT ISZERO PUSH2 0x51A JUMPI DUP8 DUP8 DUP3 DUP2 DUP2 LT PUSH2 0x357 JUMPI PUSH2 0x356 PUSH2 0xA39 JUMP JUMPDEST JUMPDEST SWAP1 POP PUSH1 0x20 MUL DUP2 ADD SWAP1 PUSH2 0x369 SWAP2 SWAP1 PUSH2 0xD45 JUMP JUMPDEST PUSH2 0x372 SWAP1 PUSH2 0xF15 JUMP JUMPDEST SWAP4 POP PUSH1 0x0 DUP5 PUSH1 0x40 ADD MLOAD GT PUSH2 0x3F5 JUMPI DUP4 PUSH1 0x0 ADD MLOAD PUSH20 0xFFFFFFFFFFFFFFFFFFFFFFFFFFFFFFFFFFFFFFFF AND DUP5 PUSH1 0x20 ADD MLOAD PUSH1 0x40 MLOAD PUSH2 0x3AD SWAP2 SWAP1 PUSH2 0xF59 JUMP JUMPDEST PUSH1 0x0 PUSH1 0x40 MLOAD DUP1 DUP4 SUB DUP2 PUSH1 0x0 DUP7 GAS CALL SWAP2 POP POP RETURNDATASIZE DUP1 PUSH1 0x0 DUP2 EQ PUSH2 0x3EA JUMPI PUSH1 0x40 MLOAD SWAP2 POP PUSH1 0x1F NOT PUSH1 0x3F RETURNDATASIZE ADD AND DUP3 ADD PUSH1 0x40 MSTORE RETURNDATASIZE DUP3 MSTORE RETURNDATASIZE PUSH1 0x0 PUSH1 0x20 DUP5 ADD RETURNDATACOPY PUSH2 0x3EF JUMP JUMPDEST PUSH1 0x60 SWAP2 POP JUMPDEST POP PUSH2 0x46B JUMP JUMPDEST DUP4 PUSH1 0x0 ADD MLOAD PUSH20 0xFFFFFFFFFFFFFFFFFFFFFFFFFFFFFFFFFFFFFFFF AND DUP5 PUSH1 0x40 ADD MLOAD DUP6 PUSH1 0x20 ADD MLOAD PUSH1 0x40 MLOAD PUSH2 0x427 SWAP2 SWAP1 PUSH2 0xF59 JUMP JUMPDEST PUSH1 0x0 PUSH1 0x40 MLOAD DUP1 DUP4 SUB DUP2 DUP6 DUP8 GAS CALL SWAP3 POP POP POP RETURNDATASIZE DUP1 PUSH1 0x0 DUP2 EQ PUSH2 0x464 JUMPI PUSH1 0x40 MLOAD SWAP2 POP PUSH1 0x1F NOT PUSH1 0x3F RETURNDATASIZE ADD AND DUP3 ADD PUSH1 0x40 MSTORE RETURNDATASIZE DUP3 MSTORE RETURNDATASIZE PUSH1 0x0 PUSH1 0x20 DUP5 ADD RETURNDATACOPY PUSH2 0x469 JUMP JUMPDEST PUSH1 0x60 SWAP2 POP JUMPDEST POP JUMPDEST DUP1 SWAP4 POP DUP2 SWAP5 POP POP POP DUP6 DUP1 ISZERO PUSH2 0x47E JUMPI POP DUP3 ISZERO JUMPDEST ISZERO PUSH2 0x4E8 JUMPI PUSH1 0x44 DUP3 MLOAD LT ISZERO PUSH2 0x492 JUMPI PUSH1 0x0 DUP1 REVERT JUMPDEST PUSH1 0x4 DUP3 ADD SWAP2 POP DUP2 DUP1 PUSH1 0x20 ADD SWAP1 MLOAD DUP2 ADD SWAP1 PUSH2 0x4AC SWAP2 SWAP1 PUSH2 0x1011 JUMP JUMPDEST PUSH1 0x40 MLOAD PUSH32 0x8C379A000000000000000000000000000000000000000000000000000000000 DUP2 MSTORE PUSH1 0x4 ADD PUSH2 0x4DF SWAP2 SWAP1 PUSH2 0x109E JUMP JUMPDEST PUSH1 0x40 MLOAD DUP1 SWAP2 SUB SWAP1 REVERT JUMPDEST DUP2 DUP6 DUP3 DUP2 MLOAD DUP2 LT PUSH2 0x4FC JUMPI PUSH2 0x4FB PUSH2 0xA39 JUMP JUMPDEST JUMPDEST PUSH1 0x20 MUL PUSH1 0x20 ADD ADD DUP2 SWAP1 MSTORE POP DUP1 DUP1 PUSH2 0x512 SWAP1 PUSH2 0xC14 JUMP JUMPDEST SWAP2 POP POP PUSH2 0x339 JUMP JUMPDEST POP POP POP POP PUSH1 0x1 PUSH1 0x0 DUP2 SWAP1 SSTORE POP SWAP4 SWAP3 POP POP POP JUMP JUMPDEST PUSH1 0x0 PUSH1 0x1 SWAP1 POP SWAP2 SWAP1 POP JUMP JUMPDEST PUSH1 0x40 MLOAD DUP1 PUSH1 0x40 ADD PUSH1 0x40 MSTORE DUP1 PUSH1 0x0 ISZERO ISZERO DUP2 MSTORE PUSH1 0x20 ADD PUSH1 0x60 DUP2 MSTORE POP SWAP1 JUMP JUMPDEST PUSH1 0x40 MLOAD DUP1 PUSH1 0x60 ADD PUSH1 0x40 MSTORE DUP1 PUSH1 0x0 PUSH20 0xFFFFFFFFFFFFFFFFFFFFFFFFFFFFFFFFFFFFFFFF AND DUP2 MSTORE PUSH1 0x20 ADD PUSH1 0x60 DUP2 MSTORE PUSH1 0x20 ADD PUSH1 0x0 DUP2 MSTORE POP SWAP1 JUMP JUMPDEST PUSH1 0x0 PUSH1 0x40 MLOAD SWAP1 POP SWAP1 JUMP JUMPDEST PUSH1 0x0 DUP1 REVERT JUMPDEST PUSH1 0x0 DUP1 REVERT JUMPDEST PUSH1 0x0 DUP1 REVERT JUMPDEST PUSH1 0x0 DUP1 REVERT JUMPDEST PUSH1 0x0 DUP1 REVERT JUMPDEST PUSH1 0x0 DUP1 DUP4 PUSH1 0x1F DUP5 ADD SLT PUSH2 0x5C4 JUMPI PUSH2 0x5C3 PUSH2 0x59F JUMP JUMPDEST JUMPDEST DUP3 CALLDATALOAD SWAP1 POP PUSH8 0xFFFFFFFFFFFFFFFF DUP2 GT ISZERO PUSH2 0x5E1 JUMPI PUSH2 0x5E0 PUSH2 0x5A4 JUMP JUMPDEST JUMPDEST PUSH1 0x20 DUP4 ADD SWAP2 POP DUP4 PUSH1 0x20 DUP3 MUL DUP4 ADD GT ISZERO PUSH2 0x5FD JUMPI PUSH2 0x5FC PUSH2 0x5A9 JUMP JUMPDEST JUMPDEST SWAP3 POP SWAP3 SWAP1 POP JUMP JUMPDEST PUSH1 0x0 DUP1 PUSH1 0x20 DUP4 DUP6 SUB SLT ISZERO PUSH2 0x61B JUMPI PUSH2 0x61A PUSH2 0x595 JUMP JUMPDEST JUMPDEST PUSH1 0x0 DUP4 ADD CALLDATALOAD PUSH8 0xFFFFFFFFFFFFFFFF DUP2 GT ISZERO PUSH2 0x639 JUMPI PUSH2 0x638 PUSH2 0x59A JUMP JUMPDEST JUMPDEST PUSH2 0x645 DUP6 DUP3 DUP7 ADD PUSH2 0x5AE JUMP JUMPDEST SWAP3 POP SWAP3 POP POP SWAP3 POP SWAP3 SWAP1 POP JUMP JUMPDEST PUSH1 0x0 DUP2 SWAP1 POP SWAP2 SWAP1 POP JUMP JUMPDEST PUSH2 0x664 DUP2 PUSH2 0x651 JUMP JUMPDEST DUP3 MSTORE POP POP JUMP JUMPDEST PUSH1 0x0 DUP2 MLOAD SWAP1 POP SWAP2 SWAP1 POP JUMP JUMPDEST PUSH1 0x0 DUP3 DUP3 MSTORE PUSH1 0x20 DUP3 ADD SWAP1 POP SWAP3 SWAP2 POP POP JUMP JUMPDEST PUSH1 0x0 DUP2 SWAP1 POP PUSH1 0x20 DUP3 ADD SWAP1 POP SWAP2 SWAP1 POP JUMP JUMPDEST PUSH1 0x0 DUP2 ISZERO ISZERO SWAP1 POP SWAP2 SWAP1 POP JUMP JUMPDEST PUSH2 0x6AB DUP2 PUSH2 0x696 JUMP JUMPDEST DUP3 MSTORE POP POP JUMP JUMPDEST PUSH1 0x0 DUP2 MLOAD SWAP1 POP SWAP2 SWAP1 POP JUMP JUMPDEST PUSH1 0x0 DUP3 DUP3 MSTORE PUSH1 0x20 DUP3 ADD SWAP1 POP SWAP3 SWAP2 POP POP JUMP JUMPDEST PUSH1 0x0 JUMPDEST DUP4 DUP2 LT ISZERO PUSH2 0x6EB JUMPI DUP1 DUP3 ADD MLOAD DUP2 DUP5 ADD MSTORE PUSH1 0x20 DUP2 ADD SWAP1 POP PUSH2 0x6D0 JUMP JUMPDEST PUSH1 0x0 DUP5 DUP5 ADD MSTORE POP POP POP POP JUMP JUMPDEST PUSH1 0x0 PUSH1 0x1F NOT PUSH1 0x1F DUP4 ADD AND SWAP1 POP SWAP2 SWAP1 POP JUMP JUMPDEST PUSH1 0x0 PUSH2 0x713 DUP3 PUSH2 0x6B1 JUMP JUMPDEST PUSH2 0x71D DUP2 DUP6 PUSH2 0x6BC JUMP JUMPDEST SWAP4 POP PUSH2 0x72D DUP2 DUP6 PUSH1 0x20 DUP7 ADD PUSH2 0x6CD JUMP JUMPDEST PUSH2 0x736 DUP2 PUSH2 0x6F7 JUMP JUMPDEST DUP5 ADD SWAP2 POP POP SWAP3 SWAP2 POP POP JUMP JUMPDEST PUSH1 0x0 PUSH1 0x40 DUP4 ADD PUSH1 0x0 DUP4 ADD MLOAD PUSH2 0x759 PUSH1 0x0 DUP7 ADD DUP3 PUSH2 0x6A2 JUMP JUMPDEST POP PUSH1 0x20 DUP4 ADD MLOAD DUP5 DUP3 SUB PUSH1 0x20 DUP7 ADD MSTORE PUSH2 0x771 DUP3 DUP3 PUSH2 0x708 JUMP JUMPDEST SWAP2 POP POP DUP1 SWAP2 POP POP SWAP3 SWAP2 POP POP JUMP JUMPDEST PUSH1 0x0 PUSH2 0x78A DUP4 DUP4 PUSH2 0x741 JUMP JUMPDEST SWAP1 POP SWAP3 SWAP2 POP POP JUMP JUMPDEST PUSH1 0x0 PUSH1 0x20 DUP3 ADD SWAP1 POP SWAP2 SWAP1 POP JUMP JUMPDEST PUSH1 0x0 PUSH2 0x7AA DUP3 PUSH2 0x66A JUMP JUMPDEST PUSH2 0x7B4 DUP2 DUP6 PUSH2 0x675 JUMP JUMPDEST SWAP4 POP DUP4 PUSH1 0x20 DUP3 MUL DUP6 ADD PUSH2 0x7C6 DUP6 PUSH2 0x686 JUMP JUMPDEST DUP1 PUSH1 0x0 JUMPDEST DUP6 DUP2 LT ISZERO PUSH2 0x802 JUMPI DUP5 DUP5 SUB DUP10 MSTORE DUP2 MLOAD PUSH2 0x7E3 DUP6 DUP3 PUSH2 0x77E JUMP JUMPDEST SWAP5 POP PUSH2 0x7EE DUP4 PUSH2 0x792 JUMP JUMPDEST SWAP3 POP PUSH1 0x20 DUP11 ADD SWAP10 POP POP PUSH1 0x1 DUP2 ADD SWAP1 POP PUSH2 0x7CA JUMP JUMPDEST POP DUP3 SWAP8 POP DUP8 SWAP6 POP POP POP POP POP POP SWAP3 SWAP2 POP POP JUMP JUMPDEST PUSH1 0x0 PUSH1 0x40 DUP3 ADD SWAP1 POP PUSH2 0x829 PUSH1 0x0 DUP4 ADD DUP6 PUSH2 0x65B JUMP JUMPDEST DUP2 DUP2 SUB PUSH1 0x20 DUP4 ADD MSTORE PUSH2 0x83B DUP2 DUP5 PUSH2 0x79F JUMP JUMPDEST SWAP1 POP SWAP4 SWAP3 POP POP POP JUMP JUMPDEST PUSH1 0x0 DUP1 DUP4 PUSH1 0x1F DUP5 ADD SLT PUSH2 0x85A JUMPI PUSH2 0x859 PUSH2 0x59F JUMP JUMPDEST JUMPDEST DUP3 CALLDATALOAD SWAP1 POP PUSH8 0xFFFFFFFFFFFFFFFF DUP2 GT ISZERO PUSH2 0x877 JUMPI PUSH2 0x876 PUSH2 0x5A4 JUMP JUMPDEST JUMPDEST PUSH1 0x20 DUP4 ADD SWAP2 POP DUP4 PUSH1 0x20 DUP3 MUL DUP4 ADD GT ISZERO PUSH2 0x893 JUMPI PUSH2 0x892 PUSH2 0x5A9 JUMP JUMPDEST JUMPDEST SWAP3 POP SWAP3 SWAP1 POP JUMP JUMPDEST PUSH2 0x8A3 DUP2 PUSH2 0x696 JUMP JUMPDEST DUP2 EQ PUSH2 0x8AE JUMPI PUSH1 0x0 DUP1 REVERT JUMPDEST POP JUMP JUMPDEST PUSH1 0x0 DUP2 CALLDATALOAD SWAP1 POP PUSH2 0x8C0 DUP2 PUSH2 0x89A JUMP JUMPDEST SWAP3 SWAP2 POP POP JUMP JUMPDEST PUSH1 0x0 DUP1 PUSH1 0x0 PUSH1 0x40 DUP5 DUP7 SUB SLT ISZERO PUSH2 0x8DF JUMPI PUSH2 0x8DE PUSH2 0x595 JUMP JUMPDEST JUMPDEST PUSH1 0x0 DUP5 ADD CALLDATALOAD PUSH8 0xFFFFFFFFFFFFFFFF DUP2 GT ISZERO PUSH2 0x8FD JUMPI PUSH2 0x8FC PUSH2 0x59A JUMP JUMPDEST JUMPDEST PUSH2 0x909 DUP7 DUP3 DUP8 ADD PUSH2 0x844 JUMP JUMPDEST SWAP4 POP SWAP4 POP POP PUSH1 0x20 PUSH2 0x91C DUP7 DUP3 DUP8 ADD PUSH2 0x8B1 JUMP JUMPDEST SWAP2 POP POP SWAP3 POP SWAP3 POP SWAP3 JUMP JUMPDEST PUSH1 0x0 DUP2 MLOAD SWAP1 POP SWAP2 SWAP1 POP JUMP JUMPDEST PUSH1 0x0 DUP3 DUP3 MSTORE PUSH1 0x20 DUP3 ADD SWAP1 POP SWAP3 SWAP2 POP POP JUMP JUMPDEST PUSH1 0x0 DUP2 SWAP1 POP PUSH1 0x20 DUP3 ADD SWAP1 POP SWAP2 SWAP1 POP JUMP JUMPDEST PUSH1 0x0 PUSH2 0x95E DUP4 DUP4 PUSH2 0x708 JUMP JUMPDEST SWAP1 POP SWAP3 SWAP2 POP POP JUMP JUMPDEST PUSH1 0x0 PUSH1 0x20 DUP3 ADD SWAP1 POP SWAP2 SWAP1 POP JUMP JUMPDEST PUSH1 0x0 PUSH2 0x97E DUP3 PUSH2 0x926 JUMP JUMPDEST PUSH2 0x988 DUP2 DUP6 PUSH2 0x931 JUMP JUMPDEST SWAP4 POP DUP4 PUSH1 0x20 DUP3 MUL DUP6 ADD PUSH2 0x99A DUP6 PUSH2 0x942 JUMP JUMPDEST DUP1 PUSH1 0x0 JUMPDEST DUP6 DUP2 LT ISZERO PUSH2 0x9D6 JUMPI DUP5 DUP5 SUB DUP10 MSTORE DUP2 MLOAD PUSH2 0x9B7 DUP6 DUP3 PUSH2 0x952 JUMP JUMPDEST SWAP5 POP PUSH2 0x9C2 DUP4 PUSH2 0x966 JUMP JUMPDEST SWAP3 POP PUSH1 0x20 DUP11 ADD SWAP10 POP POP PUSH1 0x1 DUP2 ADD SWAP1 POP PUSH2 0x99E JUMP JUMPDEST POP DUP3 SWAP8 POP DUP8 SWAP6 POP POP POP POP POP POP SWAP3 SWAP2 POP POP JUMP JUMPDEST PUSH1 0x0 PUSH1 0x20 DUP3 ADD SWAP1 POP DUP2 DUP2 SUB PUSH1 0x0 DUP4 ADD MSTORE PUSH2 0xA02 DUP2 DUP5 PUSH2 0x973 JUMP JUMPDEST SWAP1 POP SWAP3 SWAP2 POP POP JUMP JUMPDEST PUSH32 0x4E487B7100000000000000000000000000000000000000000000000000000000 PUSH1 0x0 MSTORE PUSH1 0x41 PUSH1 0x4 MSTORE PUSH1 0x24 PUSH1 0x0 REVERT JUMPDEST PUSH32 0x4E487B7100000000000000000000000000000000000000000000000000000000 PUSH1 0x0 MSTORE PUSH1 0x32 PUSH1 0x4 MSTORE PUSH1 0x24 PUSH1 0x0 REVERT JUMPDEST PUSH1 0x0 DUP1 REVERT JUMPDEST PUSH1 0x0 DUP1 REVERT JUMPDEST PUSH1 0x0 DUP1 REVERT JUMPDEST PUSH1 0x0 DUP3 CALLDATALOAD PUSH1 0x1 PUSH1 0x40 SUB DUP4 CALLDATASIZE SUB SUB DUP2 SLT PUSH2 0xA93 JUMPI PUSH2 0xA92 PUSH2 0xA68 JUMP JUMPDEST JUMPDEST DUP1 DUP4 ADD SWAP2 POP POP SWAP3 SWAP2 POP POP JUMP JUMPDEST PUSH1 0x0 PUSH20 0xFFFFFFFFFFFFFFFFFFFFFFFFFFFFFFFFFFFFFFFF DUP3 AND SWAP1 POP SWAP2 SWAP1 POP JUMP JUMPDEST PUSH1 0x0 PUSH2 0xACA DUP3 PUSH2 0xA9F JUMP JUMPDEST SWAP1 POP SWAP2 SWAP1 POP JUMP JUMPDEST PUSH2 0xADA DUP2 PUSH2 0xABF JUMP JUMPDEST DUP2 EQ PUSH2 0xAE5 JUMPI PUSH1 0x0 DUP1 REVERT JUMPDEST POP JUMP JUMPDEST PUSH1 0x0 DUP2 CALLDATALOAD SWAP1 POP PUSH2 0xAF7 DUP2 PUSH2 0xAD1 JUMP JUMPDEST SWAP3 SWAP2 POP POP JUMP JUMPDEST PUSH1 0x0 PUSH1 0x20 DUP3 DUP5 SUB SLT ISZERO PUSH2 0xB13 JUMPI PUSH2 0xB12 PUSH2 0x595 JUMP JUMPDEST JUMPDEST PUSH1 0x0 PUSH2 0xB21 DUP5 DUP3 DUP6 ADD PUSH2 0xAE8 JUMP JUMPDEST SWAP2 POP POP SWAP3 SWAP2 POP POP JUMP JUMPDEST PUSH1 0x0 DUP1 DUP4 CALLDATALOAD PUSH1 0x1 PUSH1 0x20 SUB DUP5 CALLDATASIZE SUB SUB DUP2 SLT PUSH2 0xB47 JUMPI PUSH2 0xB46 PUSH2 0xA68 JUMP JUMPDEST JUMPDEST DUP1 DUP5 ADD SWAP3 POP DUP3 CALLDATALOAD SWAP2 POP PUSH8 0xFFFFFFFFFFFFFFFF DUP3 GT ISZERO PUSH2 0xB69 JUMPI PUSH2 0xB68 PUSH2 0xA6D JUMP JUMPDEST JUMPDEST PUSH1 0x20 DUP4 ADD SWAP3 POP PUSH1 0x1 DUP3 MUL CALLDATASIZE SUB DUP4 SGT ISZERO PUSH2 0xB85 JUMPI PUSH2 0xB84 PUSH2 0xA72 JUMP JUMPDEST JUMPDEST POP SWAP3 POP SWAP3 SWAP1 POP JUMP JUMPDEST PUSH1 0x0 DUP2 SWAP1 POP SWAP3 SWAP2 POP POP JUMP JUMPDEST DUP3 DUP2 DUP4 CALLDATACOPY PUSH1 0x0 DUP4 DUP4 ADD MSTORE POP POP POP JUMP JUMPDEST PUSH1 0x0 PUSH2 0xBB3 DUP4 DUP6 PUSH2 0xB8D JUMP JUMPDEST SWAP4 POP PUSH2 0xBC0 DUP4 DUP6 DUP5 PUSH2 0xB98 JUMP JUMPDEST DUP3 DUP5 ADD SWAP1 POP SWAP4 SWAP3 POP POP POP JUMP JUMPDEST PUSH1 0x0 PUSH2 0xBD9 DUP3 DUP5 DUP7 PUSH2 0xBA7 JUMP JUMPDEST SWAP2 POP DUP2 SWAP1 POP SWAP4 SWAP3 POP POP POP JUMP JUMPDEST PUSH32 0x4E487B7100000000000000000000000000000000000000000000000000000000 PUSH1 0x0 MSTORE PUSH1 0x11 PUSH1 0x4 MSTORE PUSH1 0x24 PUSH1 0x0 REVERT JUMPDEST PUSH1 0x0 PUSH2 0xC1F DUP3 PUSH2 0x651 JUMP JUMPDEST SWAP2 POP PUSH32 0xFFFFFFFFFFFFFFFFFFFFFFFFFFFFFFFFFFFFFFFFFFFFFFFFFFFFFFFFFFFFFFFF DUP3 SUB PUSH2 0xC51 JUMPI PUSH2 0xC50 PUSH2 0xBE5 JUMP JUMPDEST JUMPDEST PUSH1 0x1 DUP3 ADD SWAP1 POP SWAP2 SWAP1 POP JUMP JUMPDEST PUSH1 0x0 DUP3 DUP3 MSTORE PUSH1 0x20 DUP3 ADD SWAP1 POP SWAP3 SWAP2 POP POP JUMP JUMPDEST PUSH32 0x5265656E7472616E637947756172643A207265656E7472616E742063616C6C00 PUSH1 0x0 DUP3 ADD MSTORE POP JUMP JUMPDEST PUSH1 0x0 PUSH2 0xCA3 PUSH1 0x1F DUP4 PUSH2 0xC5C JUMP JUMPDEST SWAP2 POP PUSH2 0xCAE DUP3 PUSH2 0xC6D JUMP JUMPDEST PUSH1 0x20 DUP3 ADD SWAP1 POP SWAP2 SWAP1 POP JUMP JUMPDEST PUSH1 0x0 PUSH1 0x20 DUP3 ADD SWAP1 POP DUP2 DUP2 SUB PUSH1 0x0 DUP4 ADD MSTORE PUSH2 0xCD2 DUP2 PUSH2 0xC96 JUMP JUMPDEST SWAP1 POP SWAP2 SWAP1 POP JUMP JUMPDEST PUSH32 0x4E6F7420417574686F72697A65642E0000000000000000000000000000000000 PUSH1 0x0 DUP3 ADD MSTORE POP JUMP JUMPDEST PUSH1 0x0 PUSH2 0xD0F PUSH1 0xF DUP4 PUSH2 0xC5C JUMP JUMPDEST SWAP2 POP PUSH2 0xD1A DUP3 PUSH2 0xCD9 JUMP JUMPDEST PUSH1 0x20 DUP3 ADD SWAP1 POP SWAP2 SWAP1 POP JUMP JUMPDEST PUSH1 0x0 PUSH1 0x20 DUP3 ADD SWAP1 POP DUP2 DUP2 SUB PUSH1 0x0 DUP4 ADD MSTORE PUSH2 0xD3E DUP2 PUSH2 0xD02 JUMP JUMPDEST SWAP1 POP SWAP2 SWAP1 POP JUMP JUMPDEST PUSH1 0x0 DUP3 CALLDATALOAD PUSH1 0x1 PUSH1 0x60 SUB DUP4 CALLDATASIZE SUB SUB DUP2 SLT PUSH2 0xD61 JUMPI PUSH2 0xD60 PUSH2 0xA68 JUMP JUMPDEST JUMPDEST DUP1 DUP4 ADD SWAP2 POP POP SWAP3 SWAP2 POP POP JUMP JUMPDEST PUSH1 0x0 DUP1 REVERT JUMPDEST PUSH2 0xD7B DUP3 PUSH2 0x6F7 JUMP JUMPDEST DUP2 ADD DUP2 DUP2 LT PUSH8 0xFFFFFFFFFFFFFFFF DUP3 GT OR ISZERO PUSH2 0xD9A JUMPI PUSH2 0xD99 PUSH2 0xA0A JUMP JUMPDEST JUMPDEST DUP1 PUSH1 0x40 MSTORE POP POP POP JUMP JUMPDEST PUSH1 0x0 PUSH2 0xDAD PUSH2 0x58B JUMP JUMPDEST SWAP1 POP PUSH2 0xDB9 DUP3 DUP3 PUSH2 0xD72 JUMP JUMPDEST SWAP2 SWAP1 POP JUMP JUMPDEST PUSH1 0x0 DUP1 REVERT JUMPDEST PUSH1 0x0 DUP1 REVERT JUMPDEST PUSH1 0x0 PUSH8 0xFFFFFFFFFFFFFFFF DUP3 GT ISZERO PUSH2 0xDE3 JUMPI PUSH2 0xDE2 PUSH2 0xA0A JUMP JUMPDEST JUMPDEST PUSH2 0xDEC DUP3 PUSH2 0x6F7 JUMP JUMPDEST SWAP1 POP PUSH1 0x20 DUP2 ADD SWAP1 POP SWAP2 SWAP1 POP JUMP JUMPDEST PUSH1 0x0 PUSH2 0xE0C PUSH2 0xE07 DUP5 PUSH2 0xDC8 JUMP JUMPDEST PUSH2 0xDA3 JUMP JUMPDEST SWAP1 POP DUP3 DUP2 MSTORE PUSH1 0x20 DUP2 ADD DUP5 DUP5 DUP5 ADD GT ISZERO PUSH2 0xE28 JUMPI PUSH2 0xE27 PUSH2 0xDC3 JUMP JUMPDEST JUMPDEST PUSH2 0xE33 DUP5 DUP3 DUP6 PUSH2 0xB98 JUMP JUMPDEST POP SWAP4 SWAP3 POP POP POP JUMP JUMPDEST PUSH1 0x0 DUP3 PUSH1 0x1F DUP4 ADD SLT PUSH2 0xE50 JUMPI PUSH2 0xE4F PUSH2 0x59F JUMP JUMPDEST JUMPDEST DUP2 CALLDATALOAD PUSH2 0xE60 DUP5 DUP3 PUSH1 0x20 DUP7 ADD PUSH2 0xDF9 JUMP JUMPDEST SWAP2 POP POP SWAP3 SWAP2 POP POP JUMP JUMPDEST PUSH2 0xE72 DUP2 PUSH2 0x651 JUMP JUMPDEST DUP2 EQ PUSH2 0xE7D JUMPI PUSH1 0x0 DUP1 REVERT JUMPDEST POP JUMP JUMPDEST PUSH1 0x0 DUP2 CALLDATALOAD SWAP1 POP PUSH2 0xE8F DUP2 PUSH2 0xE69 JUMP JUMPDEST SWAP3 SWAP2 POP POP JUMP JUMPDEST PUSH1 0x0 PUSH1 0x60 DUP3 DUP5 SUB SLT ISZERO PUSH2 0xEAB JUMPI PUSH2 0xEAA PUSH2 0xD6D JUMP JUMPDEST JUMPDEST PUSH2 0xEB5 PUSH1 0x60 PUSH2 0xDA3 JUMP JUMPDEST SWAP1 POP PUSH1 0x0 PUSH2 0xEC5 DUP5 DUP3 DUP6 ADD PUSH2 0xAE8 JUMP JUMPDEST PUSH1 0x0 DUP4 ADD MSTORE POP PUSH1 0x20 DUP3 ADD CALLDATALOAD PUSH8 0xFFFFFFFFFFFFFFFF DUP2 GT ISZERO PUSH2 0xEE9 JUMPI PUSH2 0xEE8 PUSH2 0xDBE JUMP JUMPDEST JUMPDEST PUSH2 0xEF5 DUP5 DUP3 DUP6 ADD PUSH2 0xE3B JUMP JUMPDEST PUSH1 0x20 DUP4 ADD MSTORE POP PUSH1 0x40 PUSH2 0xF09 DUP5 DUP3 DUP6 ADD PUSH2 0xE80 JUMP JUMPDEST PUSH1 0x40 DUP4 ADD MSTORE POP SWAP3 SWAP2 POP POP JUMP JUMPDEST PUSH1 0x0 PUSH2 0xF21 CALLDATASIZE DUP4 PUSH2 0xE95 JUMP JUMPDEST SWAP1 POP SWAP2 SWAP1 POP JUMP JUMPDEST PUSH1 0x0 PUSH2 0xF33 DUP3 PUSH2 0x6B1 JUMP JUMPDEST PUSH2 0xF3D DUP2 DUP6 PUSH2 0xB8D JUMP JUMPDEST SWAP4 POP PUSH2 0xF4D DUP2 DUP6 PUSH1 0x20 DUP7 ADD PUSH2 0x6CD JUMP JUMPDEST DUP1 DUP5 ADD SWAP2 POP POP SWAP3 SWAP2 POP POP JUMP JUMPDEST PUSH1 0x0 PUSH2 0xF65 DUP3 DUP5 PUSH2 0xF28 JUMP JUMPDEST SWAP2 POP DUP2 SWAP1 POP SWAP3 SWAP2 POP POP JUMP JUMPDEST PUSH1 0x0 PUSH8 0xFFFFFFFFFFFFFFFF DUP3 GT ISZERO PUSH2 0xF8B JUMPI PUSH2 0xF8A PUSH2 0xA0A JUMP JUMPDEST JUMPDEST PUSH2 0xF94 DUP3 PUSH2 0x6F7 JUMP JUMPDEST SWAP1 POP PUSH1 0x20 DUP2 ADD SWAP1 POP SWAP2 SWAP1 POP JUMP JUMPDEST PUSH1 0x0 PUSH2 0xFB4 PUSH2 0xFAF DUP5 PUSH2 0xF70 JUMP JUMPDEST PUSH2 0xDA3 JUMP JUMPDEST SWAP1 POP DUP3 DUP2 MSTORE PUSH1 0x20 DUP2 ADD DUP5 DUP5 DUP5 ADD GT ISZERO PUSH2 0xFD0 JUMPI PUSH2 0xFCF PUSH2 0xDC3 JUMP JUMPDEST JUMPDEST PUSH2 0xFDB DUP5 DUP3 DUP6 PUSH2 0x6CD JUMP JUMPDEST POP SWAP4 SWAP3 POP POP POP JUMP JUMPDEST PUSH1 0x0 DUP3 PUSH1 0x1F DUP4 ADD SLT PUSH2 0xFF8 JUMPI PUSH2 0xFF7 PUSH2 0x59F JUMP JUMPDEST JUMPDEST DUP2 MLOAD PUSH2 0x1008 DUP5 DUP3 PUSH1 0x20 DUP7 ADD PUSH2 0xFA1 JUMP JUMPDEST SWAP2 POP POP SWAP3 SWAP2 POP POP JUMP JUMPDEST PUSH1 0x0 PUSH1 0x20 DUP3 DUP5 SUB SLT ISZERO PUSH2 0x1027 JUMPI PUSH2 0x1026 PUSH2 0x595 JUMP JUMPDEST JUMPDEST PUSH1 0x0 DUP3 ADD MLOAD PUSH8 0xFFFFFFFFFFFFFFFF DUP2 GT ISZERO PUSH2 0x1045 JUMPI PUSH2 0x1044 PUSH2 0x59A JUMP JUMPDEST JUMPDEST PUSH2 0x1051 DUP5 DUP3 DUP6 ADD PUSH2 0xFE3 JUMP JUMPDEST SWAP2 POP POP SWAP3 SWAP2 POP POP JUMP JUMPDEST PUSH1 0x0 DUP2 MLOAD SWAP1 POP SWAP2 SWAP1 POP JUMP JUMPDEST PUSH1 0x0 PUSH2 0x1070 DUP3 PUSH2 0x105A JUMP JUMPDEST PUSH2 0x107A DUP2 DUP6 PUSH2 0xC5C JUMP JUMPDEST SWAP4 POP PUSH2 0x108A DUP2 DUP6 PUSH1 0x20 DUP7 ADD PUSH2 0x6CD JUMP JUMPDEST PUSH2 0x1093 DUP2 PUSH2 0x6F7 JUMP JUMPDEST DUP5 ADD SWAP2 POP POP SWAP3 SWAP2 POP POP JUMP JUMPDEST PUSH1 0x0 PUSH1 0x20 DUP3 ADD SWAP1 POP DUP2 DUP2 SUB PUSH1 0x0 DUP4 ADD MSTORE PUSH2 0x10B8 DUP2 DUP5 PUSH2 0x1065 JUMP JUMPDEST SWAP1 POP SWAP3 SWAP2 POP POP JUMP INVALID LOG2 PUSH5 0x6970667358 0x22 SLT KECCAK256 0xC DUP2 JUMPI 0xAC SELFBALANCE 0x2B PUSH2 0xEE40 SWAP5 LT PUSH4 0xC96E3F64 PUSH6 0x9211794A7569 SWAP11 SDIV 0x22 0xE9 0xBB 0xCC 0x26 0xC4 0xCB PUSH5 0x736F6C6343 STOP ADDMOD GT STOP CALLER "},"gasEstimates":{"creation":{"codeDepositCost":"868400","executionCost":"23017","totalCost":"891417"},"external":{"read((address,bytes)[])":"infinite","write((address,bytes,uint256)[],bool)":"infinite"},"internal":{"_callerCanMakeWriteMulticall(address)":"28"}},"methodIdentifiers":{"read((address,bytes)[])":"762eaab3","write((address,bytes,uint256)[],bool)":"913821c3"}},"storageLayout":{"storage":[{"astId":10,"contract":"contracts/TrustlessMulticall.sol:TrustlessMulticall","label":"_status","offset":0,"slot":"0","type":"t_uint256"}],"types":{"t_uint256":{"encoding":"inplace","label":"uint256","numberOfBytes":"32"}}},"userdoc":{"kind":"user","methods":{"read((address,bytes)[])":{"notice":"Executes a read multicall."},"write((address,bytes,uint256)[],bool)":{"notice":"Executes a write multicall."}},"notice":"A simple multicall contract implementing both the Multicall read and write APIs. ","version":1}}}}